{
  "address": "0xFF91d39D4a2aE172EE7f06E6673cf5b783EC1Ebe",
  "abi": [
    {
      "inputs": [
        {
          "internalType": "address",
          "name": "_anystake",
          "type": "address"
        },
        {
          "internalType": "address",
          "name": "_router",
          "type": "address"
        },
        {
          "internalType": "address",
          "name": "_gov",
          "type": "address"
        },
        {
          "internalType": "address",
          "name": "_points",
          "type": "address"
        },
        {
          "internalType": "address",
          "name": "_token",
          "type": "address"
        }
      ],
      "stateMutability": "nonpayable",
      "type": "constructor"
    },
    {
      "anonymous": false,
      "inputs": [
        {
          "indexed": true,
          "internalType": "address",
          "name": "user",
          "type": "address"
        },
        {
          "indexed": true,
          "internalType": "uint256",
          "name": "pid",
          "type": "uint256"
        },
        {
          "indexed": false,
          "internalType": "uint256",
          "name": "amount",
          "type": "uint256"
        }
      ],
      "name": "Claim",
      "type": "event"
    },
    {
      "anonymous": false,
      "inputs": [
        {
          "indexed": true,
          "internalType": "address",
          "name": "user",
          "type": "address"
        },
        {
          "indexed": false,
          "internalType": "uint256",
          "name": "amount",
          "type": "uint256"
        }
      ],
      "name": "ClaimAll",
      "type": "event"
    },
    {
      "anonymous": false,
      "inputs": [
        {
          "indexed": true,
          "internalType": "address",
          "name": "user",
          "type": "address"
        },
        {
          "indexed": true,
          "internalType": "uint256",
          "name": "pid",
          "type": "uint256"
        },
        {
          "indexed": false,
          "internalType": "uint256",
          "name": "amount",
          "type": "uint256"
        }
      ],
      "name": "Deposit",
      "type": "event"
    },
    {
      "anonymous": false,
      "inputs": [
        {
          "indexed": true,
          "internalType": "address",
          "name": "user",
          "type": "address"
        },
        {
          "indexed": true,
          "internalType": "uint256",
          "name": "pid",
          "type": "uint256"
        },
        {
          "indexed": false,
          "internalType": "uint256",
          "name": "amount",
          "type": "uint256"
        }
      ],
      "name": "EmergencyWithdraw",
      "type": "event"
    },
    {
      "anonymous": false,
      "inputs": [
        {
          "indexed": true,
          "internalType": "address",
          "name": "user",
          "type": "address"
        },
        {
          "indexed": false,
          "internalType": "address",
          "name": "governance",
          "type": "address"
        }
      ],
      "name": "GovernanceUpdated",
      "type": "event"
    },
    {
      "anonymous": false,
      "inputs": [
        {
          "indexed": true,
          "internalType": "address",
          "name": "user",
          "type": "address"
        },
        {
          "indexed": false,
          "internalType": "address",
          "name": "vault",
          "type": "address"
        }
      ],
      "name": "Initialized",
      "type": "event"
    },
    {
      "anonymous": false,
      "inputs": [
        {
          "indexed": true,
          "internalType": "address",
          "name": "user",
          "type": "address"
        },
        {
          "indexed": true,
          "internalType": "uint256",
          "name": "pid",
          "type": "uint256"
        },
        {
          "indexed": false,
          "internalType": "uint256",
          "name": "amount",
          "type": "uint256"
        }
      ],
      "name": "Migrate",
      "type": "event"
    },
    {
      "anonymous": false,
      "inputs": [
        {
          "indexed": true,
          "internalType": "address",
          "name": "user",
          "type": "address"
        },
        {
          "indexed": false,
          "internalType": "address",
          "name": "migrator",
          "type": "address"
        }
      ],
      "name": "MigratorUpdated",
      "type": "event"
    },
    {
      "anonymous": false,
      "inputs": [
        {
          "indexed": true,
          "internalType": "address",
          "name": "previousOwner",
          "type": "address"
        },
        {
          "indexed": true,
          "internalType": "address",
          "name": "newOwner",
          "type": "address"
        }
      ],
      "name": "OwnershipTransferred",
      "type": "event"
    },
    {
      "anonymous": false,
      "inputs": [
        {
          "indexed": true,
          "internalType": "address",
          "name": "user",
          "type": "address"
        },
        {
          "indexed": false,
          "internalType": "uint256",
          "name": "stipend",
          "type": "uint256"
        }
      ],
      "name": "PointStipendUpdated",
      "type": "event"
    },
    {
      "anonymous": false,
      "inputs": [
        {
          "indexed": true,
          "internalType": "address",
          "name": "user",
          "type": "address"
        },
        {
          "indexed": false,
          "internalType": "address",
          "name": "points",
          "type": "address"
        }
      ],
      "name": "PointsUpdated",
      "type": "event"
    },
    {
      "anonymous": false,
      "inputs": [
        {
          "indexed": true,
          "internalType": "address",
          "name": "user",
          "type": "address"
        },
        {
          "indexed": true,
          "internalType": "uint256",
          "name": "pid",
          "type": "uint256"
        },
        {
          "indexed": true,
          "internalType": "address",
          "name": "stakedToken",
          "type": "address"
        },
        {
          "indexed": false,
          "internalType": "address",
          "name": "lpToken",
          "type": "address"
        },
        {
          "indexed": false,
          "internalType": "uint256",
          "name": "allocPoints",
          "type": "uint256"
        }
      ],
      "name": "PoolAdded",
      "type": "event"
    },
    {
      "anonymous": false,
      "inputs": [
        {
          "indexed": true,
          "internalType": "address",
          "name": "user",
          "type": "address"
        },
        {
          "indexed": true,
          "internalType": "uint256",
          "name": "pid",
          "type": "uint256"
        },
        {
          "indexed": false,
          "internalType": "uint256",
          "name": "allocPoints",
          "type": "uint256"
        }
      ],
      "name": "PoolAllocPointsUpdated",
      "type": "event"
    },
    {
      "anonymous": false,
      "inputs": [
        {
          "indexed": true,
          "internalType": "address",
          "name": "user",
          "type": "address"
        },
        {
          "indexed": true,
          "internalType": "uint256",
          "name": "pid",
          "type": "uint256"
        },
        {
          "indexed": false,
          "internalType": "uint256",
          "name": "stakingFee",
          "type": "uint256"
        }
      ],
      "name": "PoolStakingFeeUpdated",
      "type": "event"
    },
    {
      "anonymous": false,
      "inputs": [
        {
          "indexed": true,
          "internalType": "address",
          "name": "user",
          "type": "address"
        },
        {
          "indexed": true,
          "internalType": "uint256",
          "name": "pid",
          "type": "uint256"
        },
        {
          "indexed": false,
          "internalType": "uint256",
          "name": "vipAmount",
          "type": "uint256"
        }
      ],
      "name": "PoolVipAmountUpdated",
      "type": "event"
    },
    {
      "anonymous": false,
      "inputs": [
        {
          "indexed": true,
          "internalType": "address",
          "name": "user",
          "type": "address"
        },
        {
          "indexed": true,
          "internalType": "address",
          "name": "token",
          "type": "address"
        },
        {
          "indexed": false,
          "internalType": "uint256",
          "name": "amount",
          "type": "uint256"
        }
      ],
      "name": "TokenSweep",
      "type": "event"
    },
    {
      "anonymous": false,
      "inputs": [
        {
          "indexed": true,
          "internalType": "address",
          "name": "user",
          "type": "address"
        },
        {
          "indexed": false,
          "internalType": "address",
          "name": "token",
          "type": "address"
        }
      ],
      "name": "TokenUpdated",
      "type": "event"
    },
    {
      "anonymous": false,
      "inputs": [
        {
          "indexed": true,
          "internalType": "address",
          "name": "user",
          "type": "address"
        },
        {
          "indexed": false,
          "internalType": "address",
          "name": "router",
          "type": "address"
        },
        {
          "indexed": false,
          "internalType": "address",
          "name": "weth",
          "type": "address"
        },
        {
          "indexed": false,
          "internalType": "address",
          "name": "factory",
          "type": "address"
        }
      ],
      "name": "UniswapUpdated",
      "type": "event"
    },
    {
      "anonymous": false,
      "inputs": [
        {
          "indexed": true,
          "internalType": "address",
          "name": "user",
          "type": "address"
        },
        {
          "indexed": false,
          "internalType": "address",
          "name": "vault",
          "type": "address"
        }
      ],
      "name": "VaultUpdated",
      "type": "event"
    },
    {
      "anonymous": false,
      "inputs": [
        {
          "indexed": true,
          "internalType": "address",
          "name": "user",
          "type": "address"
        },
        {
          "indexed": true,
          "internalType": "uint256",
          "name": "pid",
          "type": "uint256"
        },
        {
          "indexed": false,
          "internalType": "uint256",
          "name": "amount",
          "type": "uint256"
        }
      ],
      "name": "Withdraw",
      "type": "event"
    },
    {
      "inputs": [],
      "name": "DeFiatPoints",
      "outputs": [
        {
          "internalType": "address",
          "name": "",
          "type": "address"
        }
      ],
      "stateMutability": "view",
      "type": "function"
    },
    {
      "inputs": [],
      "name": "DeFiatPointsLp",
      "outputs": [
        {
          "internalType": "address",
          "name": "",
          "type": "address"
        }
      ],
      "stateMutability": "view",
      "type": "function"
    },
    {
      "inputs": [],
      "name": "DeFiatToken",
      "outputs": [
        {
          "internalType": "address",
          "name": "",
          "type": "address"
        }
      ],
      "stateMutability": "view",
      "type": "function"
    },
    {
      "inputs": [],
      "name": "DeFiatTokenLp",
      "outputs": [
        {
          "internalType": "address",
          "name": "",
          "type": "address"
        }
      ],
      "stateMutability": "view",
      "type": "function"
    },
    {
      "inputs": [
        {
          "internalType": "address",
          "name": "token",
          "type": "address"
        },
        {
          "internalType": "address",
          "name": "lpToken",
          "type": "address"
        },
        {
          "internalType": "uint256",
          "name": "allocPoint",
          "type": "uint256"
        },
        {
          "internalType": "uint256",
          "name": "vipAmount",
          "type": "uint256"
        },
        {
          "internalType": "uint256",
          "name": "stakingFee",
          "type": "uint256"
        }
      ],
      "name": "addPool",
      "outputs": [],
      "stateMutability": "nonpayable",
      "type": "function"
    },
    {
      "inputs": [
        {
          "internalType": "address[]",
          "name": "tokens",
          "type": "address[]"
        },
        {
          "internalType": "address[]",
          "name": "lpTokens",
          "type": "address[]"
        },
        {
          "internalType": "uint256[]",
          "name": "allocPoints",
          "type": "uint256[]"
        },
        {
          "internalType": "uint256[]",
          "name": "vipAmounts",
          "type": "uint256[]"
        },
        {
          "internalType": "uint256[]",
          "name": "stakingFees",
          "type": "uint256[]"
        }
      ],
      "name": "addPoolBatch",
      "outputs": [],
      "stateMutability": "nonpayable",
      "type": "function"
    },
    {
      "inputs": [
        {
          "internalType": "uint256",
          "name": "amount",
          "type": "uint256"
        }
      ],
      "name": "addReward",
      "outputs": [],
      "stateMutability": "nonpayable",
      "type": "function"
    },
    {
      "inputs": [],
      "name": "anystake",
      "outputs": [
        {
          "internalType": "address",
          "name": "",
          "type": "address"
        }
      ],
      "stateMutability": "view",
      "type": "function"
    },
    {
      "inputs": [
        {
          "internalType": "uint256",
          "name": "pid",
          "type": "uint256"
        }
      ],
      "name": "claim",
      "outputs": [],
      "stateMutability": "nonpayable",
      "type": "function"
    },
    {
      "inputs": [],
      "name": "claimAll",
      "outputs": [],
      "stateMutability": "nonpayable",
      "type": "function"
    },
    {
      "inputs": [
        {
          "internalType": "uint256",
          "name": "pid",
          "type": "uint256"
        },
        {
          "internalType": "uint256",
          "name": "amount",
          "type": "uint256"
        }
      ],
      "name": "deposit",
      "outputs": [],
      "stateMutability": "nonpayable",
      "type": "function"
    },
    {
      "inputs": [
        {
          "internalType": "uint256",
          "name": "pid",
          "type": "uint256"
        }
      ],
      "name": "emergencyWithdraw",
      "outputs": [],
      "stateMutability": "nonpayable",
      "type": "function"
    },
    {
      "inputs": [],
      "name": "factory",
      "outputs": [
        {
          "internalType": "address",
          "name": "",
          "type": "address"
        }
      ],
      "stateMutability": "view",
      "type": "function"
    },
    {
      "inputs": [
        {
          "internalType": "uint256",
          "name": "pid",
          "type": "uint256"
        }
      ],
      "name": "getPrice",
      "outputs": [
        {
          "internalType": "uint256",
          "name": "",
          "type": "uint256"
        }
      ],
      "stateMutability": "view",
      "type": "function"
    },
    {
      "inputs": [],
      "name": "governance",
      "outputs": [
        {
          "internalType": "address",
          "name": "",
          "type": "address"
        }
      ],
      "stateMutability": "view",
      "type": "function"
    },
    {
      "inputs": [
        {
          "internalType": "address",
          "name": "_token",
          "type": "address"
        }
      ],
      "name": "isBlacklistedAdminWithdraw",
      "outputs": [
        {
          "internalType": "bool",
          "name": "",
          "type": "bool"
        }
      ],
      "stateMutability": "view",
      "type": "function"
    },
    {
      "inputs": [],
      "name": "kill",
      "outputs": [],
      "stateMutability": "nonpayable",
      "type": "function"
    },
    {
      "inputs": [],
      "name": "massUpdatePools",
      "outputs": [],
      "stateMutability": "nonpayable",
      "type": "function"
    },
    {
      "inputs": [
        {
          "internalType": "uint256",
          "name": "pid",
          "type": "uint256"
        }
      ],
      "name": "migrate",
      "outputs": [],
      "stateMutability": "nonpayable",
      "type": "function"
    },
    {
      "inputs": [
        {
          "internalType": "address",
          "name": "_user",
          "type": "address"
        },
        {
          "internalType": "address",
          "name": "_token",
          "type": "address"
        },
        {
          "internalType": "uint256",
          "name": "_amount",
          "type": "uint256"
        }
      ],
      "name": "migrateTo",
      "outputs": [],
      "stateMutability": "nonpayable",
      "type": "function"
    },
    {
      "inputs": [],
      "name": "migrator",
      "outputs": [
        {
          "internalType": "address",
          "name": "",
          "type": "address"
        }
      ],
      "stateMutability": "view",
      "type": "function"
    },
    {
      "inputs": [],
      "name": "owner",
      "outputs": [
        {
          "internalType": "address",
          "name": "",
          "type": "address"
        }
      ],
      "stateMutability": "view",
      "type": "function"
    },
    {
      "inputs": [
        {
          "internalType": "uint256",
          "name": "_pid",
          "type": "uint256"
        },
        {
          "internalType": "address",
          "name": "_user",
          "type": "address"
        }
      ],
      "name": "pending",
      "outputs": [
        {
          "internalType": "uint256",
          "name": "",
          "type": "uint256"
        }
      ],
      "stateMutability": "view",
      "type": "function"
    },
    {
      "inputs": [
        {
          "internalType": "uint256",
          "name": "_pid",
          "type": "uint256"
        }
      ],
      "name": "pendingPool",
      "outputs": [
        {
          "internalType": "uint256",
          "name": "",
          "type": "uint256"
        }
      ],
      "stateMutability": "view",
      "type": "function"
    },
    {
      "inputs": [
        {
          "internalType": "address",
          "name": "",
          "type": "address"
        }
      ],
      "name": "pids",
      "outputs": [
        {
          "internalType": "uint256",
          "name": "",
          "type": "uint256"
        }
      ],
      "stateMutability": "view",
      "type": "function"
    },
    {
      "inputs": [],
      "name": "pointStipend",
      "outputs": [
        {
          "internalType": "uint256",
          "name": "",
          "type": "uint256"
        }
      ],
      "stateMutability": "view",
      "type": "function"
    },
    {
      "inputs": [
        {
          "internalType": "uint256",
          "name": "",
          "type": "uint256"
        }
      ],
      "name": "poolInfo",
      "outputs": [
        {
          "internalType": "address",
          "name": "stakedToken",
          "type": "address"
        },
        {
          "internalType": "address",
          "name": "lpToken",
          "type": "address"
        },
        {
          "internalType": "uint256",
          "name": "totalStaked",
          "type": "uint256"
        },
        {
          "internalType": "uint256",
          "name": "allocPoint",
          "type": "uint256"
        },
        {
          "internalType": "uint256",
          "name": "rewardsPerShare",
          "type": "uint256"
        },
        {
          "internalType": "uint256",
          "name": "lastRewardBlock",
          "type": "uint256"
        },
        {
          "internalType": "uint256",
          "name": "vipAmount",
          "type": "uint256"
        },
        {
          "internalType": "uint256",
          "name": "stakingFee",
          "type": "uint256"
        },
        {
          "internalType": "uint256",
          "name": "rewardDebt",
          "type": "uint256"
        }
      ],
      "stateMutability": "view",
      "type": "function"
    },
    {
      "inputs": [],
      "name": "poolLength",
      "outputs": [
        {
          "internalType": "uint256",
          "name": "",
          "type": "uint256"
        }
      ],
      "stateMutability": "view",
      "type": "function"
    },
    {
      "inputs": [],
      "name": "renounceOwnership",
      "outputs": [],
      "stateMutability": "nonpayable",
      "type": "function"
    },
    {
      "inputs": [],
      "name": "rewardsPerAllocPoint",
      "outputs": [
        {
          "internalType": "uint256",
          "name": "",
          "type": "uint256"
        }
      ],
      "stateMutability": "view",
      "type": "function"
    },
    {
      "inputs": [],
      "name": "router",
      "outputs": [
        {
          "internalType": "address",
          "name": "",
          "type": "address"
        }
      ],
      "stateMutability": "view",
      "type": "function"
    },
    {
      "inputs": [
        {
          "internalType": "address",
          "name": "_governance",
          "type": "address"
        }
      ],
      "name": "setGovernance",
      "outputs": [],
      "stateMutability": "nonpayable",
      "type": "function"
    },
    {
      "inputs": [
        {
          "internalType": "address",
          "name": "_migrator",
          "type": "address"
        }
      ],
      "name": "setMigrator",
      "outputs": [],
      "stateMutability": "nonpayable",
      "type": "function"
    },
    {
      "inputs": [
        {
          "internalType": "uint256",
          "name": "_pointStipend",
          "type": "uint256"
        }
      ],
      "name": "setPointStipend",
      "outputs": [],
      "stateMutability": "nonpayable",
      "type": "function"
    },
    {
      "inputs": [
        {
          "internalType": "address",
          "name": "_points",
          "type": "address"
        }
      ],
      "name": "setPoints",
      "outputs": [],
      "stateMutability": "nonpayable",
      "type": "function"
    },
    {
      "inputs": [
        {
          "internalType": "uint256[]",
          "name": "_pids",
          "type": "uint256[]"
        },
        {
          "internalType": "uint256[]",
          "name": "_allocPoints",
          "type": "uint256[]"
        }
      ],
      "name": "setPoolAllocPoints",
      "outputs": [],
      "stateMutability": "nonpayable",
      "type": "function"
    },
    {
      "inputs": [
        {
          "internalType": "uint256[]",
          "name": "_pids",
          "type": "uint256[]"
        },
        {
          "internalType": "uint256[]",
          "name": "_stakingFees",
          "type": "uint256[]"
        }
      ],
      "name": "setPoolStakingFee",
      "outputs": [],
      "stateMutability": "nonpayable",
      "type": "function"
    },
    {
      "inputs": [
        {
          "internalType": "uint256[]",
          "name": "_pids",
          "type": "uint256[]"
        },
        {
          "internalType": "uint256[]",
          "name": "_vipAmounts",
          "type": "uint256[]"
        }
      ],
      "name": "setPoolVipAmount",
      "outputs": [],
      "stateMutability": "nonpayable",
      "type": "function"
    },
    {
      "inputs": [
        {
          "internalType": "address",
          "name": "_token",
          "type": "address"
        }
      ],
      "name": "setToken",
      "outputs": [],
      "stateMutability": "nonpayable",
      "type": "function"
    },
    {
      "inputs": [
        {
          "internalType": "address",
          "name": "_router",
          "type": "address"
        }
      ],
      "name": "setUniswap",
      "outputs": [],
      "stateMutability": "nonpayable",
      "type": "function"
    },
    {
      "inputs": [
        {
          "internalType": "address",
          "name": "_vault",
          "type": "address"
        }
      ],
      "name": "setVault",
      "outputs": [],
      "stateMutability": "nonpayable",
      "type": "function"
    },
    {
      "inputs": [
        {
          "internalType": "address",
          "name": "_token",
          "type": "address"
        }
      ],
      "name": "sweep",
      "outputs": [],
      "stateMutability": "nonpayable",
      "type": "function"
    },
    {
      "inputs": [],
      "name": "totalAllocPoint",
      "outputs": [
        {
          "internalType": "uint256",
          "name": "",
          "type": "uint256"
        }
      ],
      "stateMutability": "view",
      "type": "function"
    },
    {
      "inputs": [
        {
          "internalType": "address",
          "name": "newOwner",
          "type": "address"
        }
      ],
      "name": "transferOwnership",
      "outputs": [],
      "stateMutability": "nonpayable",
      "type": "function"
    },
    {
      "inputs": [
        {
          "internalType": "uint256",
          "name": "pid",
          "type": "uint256"
        }
      ],
      "name": "updatePool",
      "outputs": [],
      "stateMutability": "nonpayable",
      "type": "function"
    },
    {
      "inputs": [
        {
          "internalType": "uint256",
          "name": "",
          "type": "uint256"
        },
        {
          "internalType": "address",
          "name": "",
          "type": "address"
        }
      ],
      "name": "userInfo",
      "outputs": [
        {
          "internalType": "uint256",
          "name": "amount",
          "type": "uint256"
        },
        {
          "internalType": "uint256",
          "name": "rewardDebt",
          "type": "uint256"
        },
        {
          "internalType": "uint256",
          "name": "lastRewardBlock",
          "type": "uint256"
        }
      ],
      "stateMutability": "view",
      "type": "function"
    },
    {
      "inputs": [],
      "name": "vault",
      "outputs": [
        {
          "internalType": "address",
          "name": "",
          "type": "address"
        }
      ],
      "stateMutability": "view",
      "type": "function"
    },
    {
      "inputs": [],
      "name": "weth",
      "outputs": [
        {
          "internalType": "address",
          "name": "",
          "type": "address"
        }
      ],
      "stateMutability": "view",
      "type": "function"
    },
    {
      "inputs": [
        {
          "internalType": "uint256",
          "name": "pid",
          "type": "uint256"
        },
        {
          "internalType": "uint256",
          "name": "amount",
          "type": "uint256"
        }
      ],
      "name": "withdraw",
      "outputs": [],
      "stateMutability": "nonpayable",
      "type": "function"
    }
  ],
  "transactionHash": "0xf7c8d18c056704235e9172fbcb765e4fd635f082ed748e397b71e37591ffd9f2",
  "args": [
    "0x9b90eF849E9B07b3f7cab85A4b44925511cB27cF",
    "0x7a250d5630B4cF539739dF2C5dAcb4c659F2488D",
    "0xfe521318261CAc118981d532C0E8D3C2Bf4C1dcE",
    "0xb8b8B746ab4B983C0960501146ba6079c1fd2Af3",
    "0xB571d40e4A7087C1B73ce6a3f29EaDfCA022C5B2"
  ],
  "solcInputHash": "d49570d310f77ab216bb893d859f6faa",
  "bytecode": "0x60806040523480156200001157600080fd5b50604051620051b2380380620051b2833981810160405260a08110156200003757600080fd5b508051602082015160408301516060840151608090940151929391929091908383838360006200006f6001600160e01b036200037f16565b600080546001600160a01b0319166001600160a01b0383169081178255604051929350917f8be0079c531659141344cd1fd0a4f28419497f9722a3daafe3b4186f6b6457e0908290a350620000cd836001600160e01b036200038316565b600280546001600160a01b038087166001600160a01b031992831617928390556006805486831690841617905560058054858316931692909217909155604080516315ab88c960e31b81529051929091169163ad5c464891600480820192602092909190829003018186803b1580156200014657600080fd5b505afa1580156200015b573d6000803e3d6000fd5b505050506040513d60208110156200017257600080fd5b5051600480546001600160a01b0319166001600160a01b039283161781556002546040805163c45a015560e01b81529051919093169263c45a01559281810192602092909190829003018186803b158015620001cd57600080fd5b505afa158015620001e2573d6000803e3d6000fd5b505050506040513d6020811015620001f957600080fd5b5051600380546001600160a01b0319166001600160a01b039283161790819055600480546040805163e6a4390560e01b815286861693810193909352908416602483015251919092169163e6a43905916044808301926020929190829003018186803b1580156200026957600080fd5b505afa1580156200027e573d6000803e3d6000fd5b505050506040513d60208110156200029557600080fd5b5051600780546001600160a01b0319166001600160a01b03928316179055600354600480546040805163e6a4390560e01b815287861693810193909352908416602483015251919092169163e6a43905916044808301926020929190829003018186803b1580156200030657600080fd5b505afa1580156200031b573d6000803e3d6000fd5b505050506040513d60208110156200033257600080fd5b5051600880546001600160a01b039283166001600160a01b031991821617909155600a80549b9092169a16999099179098555050670de0b6b3a76400006010555062000430945050505050565b3390565b6001546001600160a01b0382811691161415620003d25760405162461bcd60e51b81526004018080602001828103825260238152602001806200518f6023913960400191505060405180910390fd5b600180546001600160a01b038084166001600160a01b03199092169190911791829055604080519290911682525133917f434a2db650703b36c824e745330d6397cdaa9ee2cc891a4938ae853e1c50b68d919081900360200190a250565b614d4f80620004406000396000f3fe608060405234801561001057600080fd5b50600436106102ab5760003560e01c80637cd07e4711610172578063d1058e59116100d9578063e4c75c2711610092578063e4c75c2714610a3f578063e757223014610a6b578063f2fde38b14610a88578063f575832114610aae578063f887ea4014610b6c578063fbfa77cf14610b74578063fdcc7b0814610b7c576102ab565b8063d1058e591461090b578063d1af0f9c14610913578063d3917cd5146109d1578063d6c24539146109d9578063df01df6f146109f6578063e2bbb15814610a1c576102ab565b806393f1a40b1161012b57806393f1a40b146108485780639f25cde714610892578063ab033ea9146108b8578063ad460d57146108de578063c45a0155146108fb578063cc498bc214610903576102ab565b80637cd07e471461070a5780638da5cb5b146107125780638efecdda1461071a5780638f2e93cc1461074057806390af639614610782578063917f973714610840576102ab565b806341c0e1b5116102165780635aa6e675116101cf5780635aa6e67514610501578063630b5ba1146105095780636817031b14610511578063715018a61461053757806374de4ec41461053f578063758572501461055c576102ab565b806341c0e1b514610477578063441a3e701461047f578063454b0608146104a2578063463d7ac3146104bf57806351eb05a6146104c75780635312ea8e146104e4576102ab565b806323cf31181161026857806323cf3118146103ca57806324ffad88146103f057806337710aca14610426578063379607f51461044a5780633bde19e1146104675780633fc8cef31461046f576102ab565b806301681a62146102b0578063081e3eda146102d8578063144fa6d7146102f25780631526fe271461031857806317caf6f11461038857806321603e8b14610390575b600080fd5b6102d6600480360360208110156102c657600080fd5b50356001600160a01b0316610b84565b005b6102e0610c40565b60408051918252519081900360200190f35b6102d66004803603602081101561030857600080fd5b50356001600160a01b0316610c46565b6103356004803603602081101561032e57600080fd5b5035610ed5565b604080516001600160a01b039a8b168152989099166020890152878901969096526060870194909452608086019290925260a085015260c084015260e08301526101008201529051908190036101200190f35b6102e0610f3a565b6103b6600480360360208110156103a657600080fd5b50356001600160a01b0316610f40565b604080519115158252519081900360200190f35b6102d6600480360360208110156103e057600080fd5b50356001600160a01b0316610f5e565b6102d66004803603606081101561040657600080fd5b506001600160a01b038135811691602081013590911690604001356110eb565b61042e611483565b604080516001600160a01b039092168252519081900360200190f35b6102d66004803603602081101561046057600080fd5b5035611492565b6102e0611574565b61042e61157a565b6102d6611589565b6102d66004803603604081101561049557600080fd5b50803590602001356115e4565b6102d6600480360360208110156104b857600080fd5b5035611657565b61042e6116c8565b6102d6600480360360208110156104dd57600080fd5b50356116d7565b6102d6600480360360208110156104fa57600080fd5b50356116e0565b61042e611896565b6102d66118a5565b6102d66004803603602081101561052757600080fd5b50356001600160a01b03166118c8565b6102d6611a5c565b6102d66004803603602081101561055557600080fd5b5035611afe565b6102d6600480360360a081101561057257600080fd5b810190602081018135600160201b81111561058c57600080fd5b82018360208201111561059e57600080fd5b803590602001918460208302840111600160201b831117156105bf57600080fd5b919390929091602081019035600160201b8111156105dc57600080fd5b8201836020820111156105ee57600080fd5b803590602001918460208302840111600160201b8311171561060f57600080fd5b919390929091602081019035600160201b81111561062c57600080fd5b82018360208201111561063e57600080fd5b803590602001918460208302840111600160201b8311171561065f57600080fd5b919390929091602081019035600160201b81111561067c57600080fd5b82018360208201111561068e57600080fd5b803590602001918460208302840111600160201b831117156106af57600080fd5b919390929091602081019035600160201b8111156106cc57600080fd5b8201836020820111156106de57600080fd5b803590602001918460208302840111600160201b831117156106ff57600080fd5b509092509050611b9f565b61042e611d1b565b61042e611d2a565b6102d66004803603602081101561073057600080fd5b50356001600160a01b0316611d39565b6102d6600480360360a081101561075657600080fd5b506001600160a01b03813581169160208101359091169060408101359060608101359060800135612038565b6102d66004803603604081101561079857600080fd5b810190602081018135600160201b8111156107b257600080fd5b8201836020820111156107c457600080fd5b803590602001918460208302840111600160201b831117156107e557600080fd5b919390929091602081019035600160201b81111561080257600080fd5b82018360208201111561081457600080fd5b803590602001918460208302840111600160201b8311171561083557600080fd5b50909250905061212f565b61042e61224b565b6108746004803603604081101561085e57600080fd5b50803590602001356001600160a01b031661225a565b60408051938452602084019290925282820152519081900360600190f35b6102d6600480360360208110156108a857600080fd5b50356001600160a01b0316612286565b6102d6600480360360208110156108ce57600080fd5b50356001600160a01b0316612515565b6102e0600480360360208110156108f457600080fd5b50356125f9565b61042e612659565b6102e0612668565b6102d661266e565b6102d66004803603604081101561092957600080fd5b810190602081018135600160201b81111561094357600080fd5b82018360208201111561095557600080fd5b803590602001918460208302840111600160201b8311171561097657600080fd5b919390929091602081019035600160201b81111561099357600080fd5b8201836020820111156109a557600080fd5b803590602001918460208302840111600160201b831117156109c657600080fd5b50909250905061281e565b61042e612942565b6102d6600480360360208110156109ef57600080fd5b5035612951565b6102e060048036036020811015610a0c57600080fd5b50356001600160a01b0316612ac0565b6102d660048036036040811015610a3257600080fd5b5080359060200135612ad2565b6102e060048036036040811015610a5557600080fd5b50803590602001356001600160a01b0316612b3f565b6102e060048036036020811015610a8157600080fd5b5035612bb5565b6102d660048036036020811015610a9e57600080fd5b50356001600160a01b0316612c8f565b6102d660048036036040811015610ac457600080fd5b810190602081018135600160201b811115610ade57600080fd5b820183602082011115610af057600080fd5b803590602001918460208302840111600160201b83111715610b1157600080fd5b919390929091602081019035600160201b811115610b2e57600080fd5b820183602082011115610b4057600080fd5b803590602001918460208302840111600160201b83111715610b6157600080fd5b509092509050612d87565b61042e612ea3565b61042e612eb2565b61042e612ec1565b610b8c612ed0565b6000546001600160a01b03908116911614610bdc576040805162461bcd60e51b81526020600482018190526024820152600080516020614c0f833981519152604482015290519081900360640190fd5b6001600160a01b03811660009081526009602052604090205460ff1615610c345760405162461bcd60e51b8152600401808060200182810382526028815260200180614c506028913960400191505060405180910390fd5b610c3d81612ed4565b50565b600d5490565b60015460408051630f9e0f3360e31b815233600482015290516002926001600160a01b031691637cf07998916024808301926020929190829003018186803b158015610c9157600080fd5b505afa158015610ca5573d6000803e3d6000fd5b505050506040513d6020811015610cbb57600080fd5b5051101580610ce25750610ccd611d2a565b6001600160a01b0316336001600160a01b0316145b610d21576040805162461bcd60e51b81526020600482015260136024820152600080516020614cfa833981519152604482015290519081900360640190fd5b6005546001600160a01b0382811691161415610d84576040805162461bcd60e51b815260206004820152601960248201527f536574546f6b656e3a204e6f20746f6b656e206368616e676500000000000000604482015290519081900360640190fd5b6001600160a01b038116610ddf576040805162461bcd60e51b815260206004820152601e60248201527f536574546f6b656e3a204d7573742073657420746f6b656e2076616c75650000604482015290519081900360640190fd5b600580546001600160a01b0319166001600160a01b03838116918217909255600354600480546040805163e6a4390560e01b81529283019490945284166024820152915192169163e6a4390591604480820192602092909190829003018186803b158015610e4c57600080fd5b505afa158015610e60573d6000803e3d6000fd5b505050506040513d6020811015610e7657600080fd5b5051600780546001600160a01b039283166001600160a01b031990911617905560055460408051919092168152905133917f0b1186973f810894b87ab0bfbee422fddcaad21b46dc705a561451bbb6bac117919081900360200190a250565b600d8181548110610ee257fe5b60009182526020909120600990910201805460018201546002830154600384015460048501546005860154600687015460078801546008909801546001600160a01b0397881699509690951696939592949193909289565b60125481565b6001600160a01b031660009081526009602052604090205460ff1690565b60015460408051630f9e0f3360e31b815233600482015290516002926001600160a01b031691637cf07998916024808301926020929190829003018186803b158015610fa957600080fd5b505afa158015610fbd573d6000803e3d6000fd5b505050506040513d6020811015610fd357600080fd5b5051101580610ffa5750610fe5611d2a565b6001600160a01b0316336001600160a01b0316145b611039576040805162461bcd60e51b81526020600482015260136024820152600080516020614cfa833981519152604482015290519081900360640190fd5b6001600160a01b038116611094576040805162461bcd60e51b815260206004820152601f60248201527f5365744d69677261746f723a204e6f206d69677261746f72206368616e676500604482015290519081900360640190fd5b600b80546001600160a01b0383166001600160a01b03199091168117909155604080519182525133917f17356f011fa307735bd27bcbcd4ee385789d5155c6e44c093a1936e387f62ae5919081900360200190a250565b600a546001600160a01b031633146111345760405162461bcd60e51b8152600401808060200182810382526028815260200180614a9d6028913960400191505060405180910390fd5b6001600160a01b0382166000908152600f6020526040812054600d80549192918390811061115e57fe5b60009182526020808320858452600e825260408085206001600160a01b038b16865290925292206009909102909101915061119983876130e3565b604080516370a0823160e01b815230600482015290516000916001600160a01b038816916370a0823191602480820192602092909190829003018186803b1580156111e357600080fd5b505afa1580156111f7573d6000803e3d6000fd5b505050506040513d602081101561120d57600080fd5b5051600a54604080516323b872dd60e01b81526001600160a01b039283166004820152306024820152604481018990529051929350908816916323b872dd916064808201926020929091908290030181600087803b15801561126e57600080fd5b505af1158015611282573d6000803e3d6000fd5b505050506040513d602081101561129857600080fd5b5050604080516370a0823160e01b815230600482015290516000916001600160a01b038916916370a0823191602480820192602092909190829003018186803b1580156112e457600080fd5b505afa1580156112f8573d6000803e3d6000fd5b505050506040513d602081101561130e57600080fd5b505190506000611324828463ffffffff6131ae16565b600286015490915061133c908263ffffffff6131f016565b60028601558354611353908263ffffffff6131f016565b808555600486015461138591670de0b6b3a764000091611379919063ffffffff61324a16565b9063ffffffff6132a316565b600185015543600285015560065460408051630f72908960e01b815290516001600160a01b03909216916323d14d60918c918491630f729089916004808301926020929190829003018186803b1580156113de57600080fd5b505afa1580156113f2573d6000803e3d6000fd5b505050506040513d602081101561140857600080fd5b5051601054604080516001600160e01b031960e087901b1681526001600160a01b0390941660048501526024840192909252604483015251606480830192600092919082900301818387803b15801561146057600080fd5b505af1158015611474573d6000803e3d6000fd5b50505050505050505050505050565b6005546001600160a01b031681565b6000818152600e602090815260408083203380855292529091206002015482919043116114f4576040805162461bcd60e51b815260206004820152601b6024820152600080516020614b5a833981519152604482015290519081900360640190fd5b6000600d848154811061150357fe5b60009182526020808320878452600e82526040808520338652909252922060099091029091019150611534856132e5565b61153e85336130e3565b6004820154815461156291670de0b6b3a7640000916113799163ffffffff61324a16565b60018201554360029091015550505050565b60105481565b6004546001600160a01b031681565b611591612ed0565b6000546001600160a01b039081169116146115e1576040805162461bcd60e51b81526020600482018190526024820152600080516020614c0f833981519152604482015290519081900360640190fd5b33ff5b6000828152600e60209081526040808320338085529252909120600201548391904311611646576040805162461bcd60e51b815260206004820152601b6024820152600080516020614b5a833981519152604482015290519081900360640190fd5b61165133858561340f565b50505050565b6000818152600e602090815260408083203380855292529091206002015482919043116116b9576040805162461bcd60e51b815260206004820152601b6024820152600080516020614b5a833981519152604482015290519081900360640190fd5b6116c33384613803565b505050565b6008546001600160a01b031681565b610c3d816132e5565b6000818152600e60209081526040808320338085529252909120600201548291904311611742576040805162461bcd60e51b815260206004820152601b6024820152600080516020614b5a833981519152604482015290519081900360640190fd5b6000600d848154811061175157fe5b60009182526020808320878452600e8252604080852033865290925292208054600990920290920192506117b65760405162461bcd60e51b815260040180806020018281038252602b815260200180614b7a602b913960400191505060405180910390fd5b60006117d96103e86113798560070154856000015461324a90919063ffffffff16565b82549091506000906117f1908363ffffffff6131ae16565b8354600286015491925061180b919063ffffffff6131ae16565b600280860191909155600080855560018501554390840155600c54845461183f916001600160a01b03908116911684613a5b565b83546118569033906001600160a01b031683613a5b565b604080518281529051889133917fbb757047c2b5f3974fe26b7c10f732e7bce710b0952a71082702781e62ae05959181900360200190a350505050505050565b6001546001600160a01b031681565b600d5460005b818110156118c4576118bc816132e5565b6001016118ab565b5050565b60015460408051630f9e0f3360e31b815233600482015290516002926001600160a01b031691637cf07998916024808301926020929190829003018186803b15801561191357600080fd5b505afa158015611927573d6000803e3d6000fd5b505050506040513d602081101561193d57600080fd5b5051101580611964575061194f611d2a565b6001600160a01b0316336001600160a01b0316145b6119a3576040805162461bcd60e51b81526020600482015260136024820152600080516020614cfa833981519152604482015290519081900360640190fd5b6001600160a01b0381166119fe576040805162461bcd60e51b815260206004820152601c60248201527f5365745661756c743a204e6f206d69677261746f72206368616e676500000000604482015290519081900360640190fd5b600c80546001600160a01b038084166001600160a01b03199092169190911791829055604080519290911682525133917f483bdedaaf23706a9800ac1af0d852b34927780d79f9d6ba60a80c7cad75ea39919081900360200190a250565b611a64612ed0565b6000546001600160a01b03908116911614611ab4576040805162461bcd60e51b81526020600482018190526024820152600080516020614c0f833981519152604482015290519081900360640190fd5b600080546040516001600160a01b03909116907f8be0079c531659141344cd1fd0a4f28419497f9722a3daafe3b4186f6b6457e0908390a3600080546001600160a01b0319169055565b600c546001600160a01b03163314611b5d576040805162461bcd60e51b815260206004820152601c60248201527f416e795374616b653a204f6e6c79205661756c7420616c6c6f77656400000000604482015290519081900360640190fd5b80611b6757610c3d565b601254611b9990611b8a9061137984670de0b6b3a764000063ffffffff61324a16565b6011549063ffffffff6131f016565b60115550565b60015460408051630f9e0f3360e31b815233600482015290516002926001600160a01b031691637cf07998916024808301926020929190829003018186803b158015611bea57600080fd5b505afa158015611bfe573d6000803e3d6000fd5b505050506040513d6020811015611c1457600080fd5b5051101580611c3b5750611c26611d2a565b6001600160a01b0316336001600160a01b0316145b611c7a576040805162461bcd60e51b81526020600482015260136024820152600080516020614cfa833981519152604482015290519081900360640190fd5b611c826118a5565b60005b89811015611d0e57611d068b8b83818110611c9c57fe5b905060200201356001600160a01b03168a8a84818110611cb857fe5b905060200201356001600160a01b0316898985818110611cd457fe5b90506020020135888886818110611ce757fe5b90506020020135878787818110611cfa57fe5b90506020020135613b1e565b600101611c85565b5050505050505050505050565b600b546001600160a01b031681565b6000546001600160a01b031690565b60015460408051630f9e0f3360e31b815233600482015290516002926001600160a01b031691637cf07998916024808301926020929190829003018186803b158015611d8457600080fd5b505afa158015611d98573d6000803e3d6000fd5b505050506040513d6020811015611dae57600080fd5b5051101580611dd55750611dc0611d2a565b6001600160a01b0316336001600160a01b0316145b611e14576040805162461bcd60e51b81526020600482015260136024820152600080516020614cfa833981519152604482015290519081900360640190fd5b6002546001600160a01b0382811691161415611e77576040805162461bcd60e51b815260206004820152601d60248201527f536574556e69737761703a204e6f20756e6973776170206368616e6765000000604482015290519081900360640190fd5b6001600160a01b038116611ebc5760405162461bcd60e51b8152600401808060200182810382526022815260200180614ca26022913960400191505060405180910390fd5b600280546001600160a01b0319166001600160a01b038381169190911791829055604080516315ab88c960e31b81529051929091169163ad5c464891600480820192602092909190829003018186803b158015611f1857600080fd5b505afa158015611f2c573d6000803e3d6000fd5b505050506040513d6020811015611f4257600080fd5b5051600480546001600160a01b0319166001600160a01b039283161781556002546040805163c45a015560e01b81529051919093169263c45a01559281810192602092909190829003018186803b158015611f9c57600080fd5b505afa158015611fb0573d6000803e3d6000fd5b505050506040513d6020811015611fc657600080fd5b5051600380546001600160a01b039283166001600160a01b03199091161790819055600254600454604080519285168352908416602083015291909216828201525133917f0cded593bf24267de84b7b3800bf9eb31ddb3c449fff75a64b1232bb7738d6df919081900360600190a250565b60015460408051630f9e0f3360e31b815233600482015290516002926001600160a01b031691637cf07998916024808301926020929190829003018186803b15801561208357600080fd5b505afa158015612097573d6000803e3d6000fd5b505050506040513d60208110156120ad57600080fd5b50511015806120d457506120bf611d2a565b6001600160a01b0316336001600160a01b0316145b612113576040805162461bcd60e51b81526020600482015260136024820152600080516020614cfa833981519152604482015290519081900360640190fd5b61211b6118a5565b6121288585858585613b1e565b5050505050565b60015460408051630f9e0f3360e31b815233600482015290516002926001600160a01b031691637cf07998916024808301926020929190829003018186803b15801561217a57600080fd5b505afa15801561218e573d6000803e3d6000fd5b505050506040513d60208110156121a457600080fd5b50511015806121cb57506121b6611d2a565b6001600160a01b0316336001600160a01b0316145b61220a576040805162461bcd60e51b81526020600482015260136024820152600080516020614cfa833981519152604482015290519081900360640190fd5b60005b838110156121285761224385858381811061222457fe5b9050602002013584848481811061223757fe5b90506020020135613d96565b60010161220d565b6006546001600160a01b031681565b600e60209081526000928352604080842090915290825290208054600182015460029092015490919083565b60015460408051630f9e0f3360e31b815233600482015290516002926001600160a01b031691637cf07998916024808301926020929190829003018186803b1580156122d157600080fd5b505afa1580156122e5573d6000803e3d6000fd5b505050506040513d60208110156122fb57600080fd5b5051101580612322575061230d611d2a565b6001600160a01b0316336001600160a01b0316145b612361576040805162461bcd60e51b81526020600482015260136024820152600080516020614cfa833981519152604482015290519081900360640190fd5b6006546001600160a01b03828116911614156123c4576040805162461bcd60e51b815260206004820152601b60248201527f536574506f696e74733a204e6f20706f696e7473206368616e67650000000000604482015290519081900360640190fd5b6001600160a01b03811661241f576040805162461bcd60e51b815260206004820181905260248201527f536574506f696e74733a204d7573742073657420706f696e74732076616c7565604482015290519081900360640190fd5b600680546001600160a01b0319166001600160a01b03838116918217909255600354600480546040805163e6a4390560e01b81529283019490945284166024820152915192169163e6a4390591604480820192602092909190829003018186803b15801561248c57600080fd5b505afa1580156124a0573d6000803e3d6000fd5b505050506040513d60208110156124b657600080fd5b5051600880546001600160a01b039283166001600160a01b031990911617905560065460408051919092168152905133917f51a2b49da00e06b51910260db68d6491809bb5755e305a6f469fb89e8b5e99d5919081900360200190a250565b60015460408051630f9e0f3360e31b815233600482015290516002926001600160a01b031691637cf07998916024808301926020929190829003018186803b15801561256057600080fd5b505afa158015612574573d6000803e3d6000fd5b505050506040513d602081101561258a57600080fd5b50511015806125b1575061259c611d2a565b6001600160a01b0316336001600160a01b0316145b6125f0576040805162461bcd60e51b81526020600482015260136024820152600080516020614cfa833981519152604482015290519081900360640190fd5b610c3d81613ec9565b600080600d838154811061260957fe5b906000526020600020906009020190506126528160080154612646670de0b6b3a7640000611379856003015460115461324a90919063ffffffff16565b9063ffffffff6131ae16565b9392505050565b6003546001600160a01b031681565b60115481565b600d54600090815b81811015612772576000600d828154811061268d57fe5b60009182526020808320858452600e825260408085203386529092529220600281015460099092029092019250431180156126c85750805415155b15612768576126d6836132e5565b60006126e28433612b3f565b90508015612766576126fa868263ffffffff6131f016565b9550612723670de0b6b3a76400006113798560040154856000015461324a90919063ffffffff16565b6001830155436002830155604080518281529051859133917f34fcbac0073d7c3d388e51312faf357774904998eeb8fca628b9e6f65ee1cbf79181900360200190a35b505b5050600101612676565b5081156118c457600c546040805163a8031a1d60e01b81523360048201526024810185905290516001600160a01b039092169163a8031a1d9160448082019260009290919082900301818387803b1580156127cc57600080fd5b505af11580156127e0573d6000803e3d6000fd5b50506040805185815290513393507f87c8f5d0edc1925e2c5f0557944a55a97424c9ded0e2ac25a5515137603c9ad392509081900360200190a25050565b60015460408051630f9e0f3360e31b815233600482015290516002926001600160a01b031691637cf07998916024808301926020929190829003018186803b15801561286957600080fd5b505afa15801561287d573d6000803e3d6000fd5b505050506040513d602081101561289357600080fd5b50511015806128ba57506128a5611d2a565b6001600160a01b0316336001600160a01b0316145b6128f9576040805162461bcd60e51b81526020600482015260136024820152600080516020614cfa833981519152604482015290519081900360640190fd5b6129016118a5565b60005b838110156121285761293a85858381811061291b57fe5b9050602002013584848481811061292e57fe5b90506020020135613f74565b600101612904565b600a546001600160a01b031681565b60015460408051630f9e0f3360e31b815233600482015290516002926001600160a01b031691637cf07998916024808301926020929190829003018186803b15801561299c57600080fd5b505afa1580156129b0573d6000803e3d6000fd5b505050506040513d60208110156129c657600080fd5b50511015806129ed57506129d8611d2a565b6001600160a01b0316336001600160a01b0316145b612a2c576040805162461bcd60e51b81526020600482015260136024820152600080516020614cfa833981519152604482015290519081900360640190fd5b601054811415612a83576040805162461bcd60e51b815260206004820152601d60248201527f53657453746970656e643a204e6f2073746970656e64206368616e6765000000604482015290519081900360640190fd5b601081905560408051828152905133917e1db560367632140dc5de7e4cac2629deebb3946f49949b29ad8fe0a23baf9d919081900360200190a250565b600f6020526000908152604090205481565b6000828152600e60209081526040808320338085529252909120600201548391904311612b34576040805162461bcd60e51b815260206004820152601b6024820152600080516020614b5a833981519152604482015290519081900360640190fd5b61165133858561405b565b600080600d8481548110612b4f57fe5b60009182526020808320878452600e825260408085206001600160a01b03891686529092529220600181015460099290920290920160048101548354919450612baa929161264691670de0b6b3a7640000916113799161324a565b925050505b92915050565b600080600d8381548110612bc557fe5b60009182526020822060099091020154600d80546001600160a01b0390921693509085908110612bf157fe5b600091825260209182902060016009909202010154600c546040805163057d4cc360e51b81526001600160a01b038781166004830152938416602482018190529151919550919092169263afa9986092604480840193829003018186803b158015612c5b57600080fd5b505afa158015612c6f573d6000803e3d6000fd5b505050506040513d6020811015612c8557600080fd5b5051949350505050565b612c97612ed0565b6000546001600160a01b03908116911614612ce7576040805162461bcd60e51b81526020600482018190526024820152600080516020614c0f833981519152604482015290519081900360640190fd5b6001600160a01b038116612d2c5760405162461bcd60e51b8152600401808060200182810382526026815260200180614ac56026913960400191505060405180910390fd5b600080546040516001600160a01b03808516939216917f8be0079c531659141344cd1fd0a4f28419497f9722a3daafe3b4186f6b6457e091a3600080546001600160a01b0319166001600160a01b0392909216919091179055565b60015460408051630f9e0f3360e31b815233600482015290516002926001600160a01b031691637cf07998916024808301926020929190829003018186803b158015612dd257600080fd5b505afa158015612de6573d6000803e3d6000fd5b505050506040513d6020811015612dfc57600080fd5b5051101580612e235750612e0e611d2a565b6001600160a01b0316336001600160a01b0316145b612e62576040805162461bcd60e51b81526020600482015260136024820152600080516020614cfa833981519152604482015290519081900360640190fd5b60005b8381101561212857612e9b858583818110612e7c57fe5b90506020020135848484818110612e8f57fe5b90506020020135614479565b600101612e65565b6002546001600160a01b031681565b600c546001600160a01b031681565b6007546001600160a01b031681565b3390565b612edc612ed0565b6000546001600160a01b03908116911614612f2c576040805162461bcd60e51b81526020600482018190526024820152600080516020614c0f833981519152604482015290519081900360640190fd5b604080516370a0823160e01b815230600482015290516000916001600160a01b038416916370a0823191602480820192602092909190829003018186803b158015612f7657600080fd5b505afa158015612f8a573d6000803e3d6000fd5b505050506040513d6020811015612fa057600080fd5b5051905080612ff0576040805162461bcd60e51b815260206004820152601760248201527653776565703a204e6f20746f6b656e2062616c616e636560481b604482015290519081900360640190fd5b6040805163a9059cbb60e01b81523360048201526024810183905290516001600160a01b0384169163a9059cbb9160448083019260209291908290030181600087803b15801561303f57600080fd5b505af1158015613053573d6000803e3d6000fd5b505050506040513d602081101561306957600080fd5b5050471561309f5760405133904780156108fc02916000818181858888f1935050505015801561309d573d6000803e3d6000fd5b505b6040805182815290516001600160a01b0384169133917f39a3bfd42aa3a6ab14fe516cd2417618c0b46203671179fa38a757f24f5d30c39181900360200190a35050565b60006130ef8383612b3f565b9050806130fc57506118c4565b600c546040805163a8031a1d60e01b81526001600160a01b038581166004830152602482018590529151919092169163a8031a1d91604480830192600092919082900301818387803b15801561315157600080fd5b505af1158015613165573d6000803e3d6000fd5b50506040805184815290518693506001600160a01b03861692507f34fcbac0073d7c3d388e51312faf357774904998eeb8fca628b9e6f65ee1cbf79181900360200190a3505050565b600061265283836040518060400160405280601e81526020017f536166654d6174683a207375627472616374696f6e206f766572666c6f770000815250614555565b600082820183811015612652576040805162461bcd60e51b815260206004820152601b60248201527f536166654d6174683a206164646974696f6e206f766572666c6f770000000000604482015290519081900360640190fd5b60008261325957506000612baf565b8282028284828161326657fe5b04146126525760405162461bcd60e51b8152600401808060200182810382526021815260200180614bee6021913960400191505060405180910390fd5b600061265283836040518060400160405280601a81526020017f536166654d6174683a206469766973696f6e206279207a65726f0000000000008152506145ec565b6000600d82815481106132f457fe5b9060005260206000209060090201905080600201546000148061331b575043816005015410155b8061332857506003810154155b156133335750610c3d565b600c60009054906101000a90046001600160a01b03166001600160a01b0316633e50de306040518163ffffffff1660e01b8152600401600060405180830381600087803b15801561338357600080fd5b505af1158015613397573d6000803e3d6000fd5b5050505060006133a6836125f9565b905080156134045760028201546133e4906133d39061137984670de0b6b3a764000063ffffffff61324a16565b60048401549063ffffffff6131f016565b600483015560088201546133fe908263ffffffff6131f016565b60088301555b504360059091015550565b6000600d838154811061341e57fe5b60009182526020808320868452600e825260408085206001600160a01b038a1686529092529220600990910290910191508261348b5760405162461bcd60e51b815260040180806020018281038252602a815260200180614b30602a913960400191505060405180910390fd5b80548311156134cb5760405162461bcd60e51b8152600401808060200182810382526022815260200180614b0e6022913960400191505060405180910390fd5b6001600160a01b03851660009081527fe710864318d4a32f37d6ce54cb3fadbef648dd12d8dbdf53973564d56b7f881c602052604090205460068301541115613550576040805162461bcd60e51b815260206004820152601260248201527157697468647261773a20564950204f6e6c7960701b604482015290519081900360640190fd5b613559846132e5565b61356384866130e3565b6002820154613578908463ffffffff6131ae16565b6002830155805461358f908463ffffffff6131ae16565b80825560048301546135b591670de0b6b3a764000091611379919063ffffffff61324a16565b600182015543600282015560078201546000906135e1906103e89061137990879063ffffffff61324a16565b905060006135f5858363ffffffff6131ae16565b905081156137a3578354600c54604080516370a0823160e01b81526001600160a01b039283166004820152905160009392909216916370a0823191602480820192602092909190829003018186803b15801561365057600080fd5b505afa158015613664573d6000803e3d6000fd5b505050506040513d602081101561367a57600080fd5b5051600c54865491925061369b916001600160a01b03918216911685613a5b565b8454600c54604080516370a0823160e01b81526001600160a01b039283166004820152905160009392909216916370a0823191602480820192602092909190829003018186803b1580156136ee57600080fd5b505afa158015613702573d6000803e3d6000fd5b505050506040513d602081101561371857600080fd5b50519050600061372e828463ffffffff6131ae16565b600c548854604080516302306a4560e51b81526001600160a01b03928316600482015260248101859052905193945091169163460d48a09160448082019260009290919082900301818387803b15801561378757600080fd5b505af115801561379b573d6000803e3d6000fd5b505050505050505b83546137ba9088906001600160a01b031683613a5b565b60408051828152905187916001600160a01b038a16917ff279e6a1f5e320cca91135676d9cb6e44ca8a08c0b88342bcdb1144f6511b5689181900360200190a350505050505050565b6000600d828154811061381257fe5b60009182526020808320858452600e825260408085206001600160a01b03808a16875293529093208054600b5460099094029094019450929116613898576040805162461bcd60e51b8152602060048201526018602482015277135a59dc985d194e88139bc81b5a59dc985d1bdc881cd95d60421b604482015290519081900360640190fd5b600081116138ed576040805162461bcd60e51b815260206004820152601d60248201527f4d6967726174653a204e6f20746f6b656e7320746f206d696772617465000000604482015290519081900360640190fd5b600383015415613944576040805162461bcd60e51b815260206004820152601d60248201527f4d6967726174653a20506f6f6c206973207374696c6c20616374697665000000604482015290519081900360640190fd5b61394e84866130e3565b6002830154613963908263ffffffff6131ae16565b600280850191909155600080845560018401554390830155600b54835461399d916001600160a01b0391821691168363ffffffff61465116565b600b5483546040805163049ff5b160e31b81526001600160a01b038981166004830152928316602482015260448101859052905191909216916324ffad8891606480830192600092919082900301818387803b1580156139fc57600080fd5b505af1158015613a10573d6000803e3d6000fd5b50506040805184815290518793506001600160a01b03891692507fd44a6dd2bfac4f6bc02d116d96aa12c24e8580626b95cb6a2f543f18cb61bd4c9181900360200190a35050505050565b80613a65576116c3565b604080516370a0823160e01b815230600482015290516000916001600160a01b038516916370a0823191602480820192602092909190829003018186803b158015613aaf57600080fd5b505afa158015613ac3573d6000803e3d6000fd5b505050506040513d6020811015613ad957600080fd5b5051905080821115613b0457613aff6001600160a01b038416858363ffffffff61476416565b611651565b6116516001600160a01b038416858463ffffffff61476416565b6001600160a01b0385166000908152600f602052604090205415613b735760405162461bcd60e51b8152600401808060200182810382526021815260200180614c2f6021913960400191505060405180910390fd5b600d546001600160a01b0386166000908152600f60209081526040808320939093556009905220805460ff19166001179055601254613bb8908463ffffffff6131f016565b601255601154600090613bdf90670de0b6b3a764000090611379908763ffffffff61324a16565b9050600d604051806101200160405280886001600160a01b03168152602001876001600160a01b03168152602001600081526020018681526020016000815260200143815260200185815260200184815260200183815250908060018154018082558091505060019003906000526020600020906009020160009091909190915060008201518160000160006101000a8154816001600160a01b0302191690836001600160a01b0316021790555060208201518160010160006101000a8154816001600160a01b0302191690836001600160a01b0316021790555060408201518160020155606082015181600301556080820151816004015560a0820151816005015560c0820151816006015560e0820151816007015561010082015181600801555050856001600160a01b0316600f6000886001600160a01b03166001600160a01b0316815260200190815260200160002054336001600160a01b03167f2333cd0b9fe1eaf71d94e2d81e2683de7dbab224455f35b7365e5cde579c728f888860405180836001600160a01b03166001600160a01b031681526020018281526020019250505060405180910390a4505050505050565b600d8281548110613da357fe5b906000526020600020906009020160070154811415613e09576040805162461bcd60e51b815260206004820152601c60248201527f5365745374616b696e674665653a204e6f20666565206368616e676500000000604482015290519081900360640190fd5b6103e8811115613e60576040805162461bcd60e51b815260206004820152601e60248201527f5365744665653a204665652063616e6e6f742065786365656420313030250000604482015290519081900360640190fd5b80600d8381548110613e6e57fe5b90600052602060002090600902016007018190555081336001600160a01b03167f43ce45b3b6eef4fb3429626990f0493737f08eb051eb0babbcfc998223b12f5f836040518082815260200191505060405180910390a35050565b6001546001600160a01b0382811691161415613f165760405162461bcd60e51b8152600401808060200182810382526023815260200180614aeb6023913960400191505060405180910390fd5b600180546001600160a01b038084166001600160a01b03199092169190911791829055604080519290911682525133917f434a2db650703b36c824e745330d6397cdaa9ee2cc891a4938ae853e1c50b68d919081900360200190a250565b6000600d8381548110613f8357fe5b906000526020600020906009020190508181600301541415613fec576040805162461bcd60e51b815260206004820181905260248201527f536574416c6c6f63506f696e74733a204e6f20706f696e7473206368616e6765604482015290519081900360640190fd5b6140158261400983600301546012546131ae90919063ffffffff16565b9063ffffffff6131f016565b60125560038101829055604080518381529051849133917f4293855ab768b9f55ef778cf5df30fc83be17d1ef8b007a0aadfa16bb011fc019181900360200190a3505050565b6000600d838154811061406a57fe5b60009182526020808320868452600e825260408085206001600160a01b038a168652909252922060099091029091019150826140d75760405162461bcd60e51b8152600401808060200182810382526023815260200180614bcb6023913960400191505060405180910390fd5b6000826003015411614130576040805162461bcd60e51b815260206004820152601b60248201527f4465706f7369743a20506f6f6c206973206e6f74206163746976650000000000604482015290519081900360640190fd5b6001600160a01b03851660009081527fe710864318d4a32f37d6ce54cb3fadbef648dd12d8dbdf53973564d56b7f881c6020526040902054600683015411156141b4576040805162461bcd60e51b81526020600482015260116024820152704465706f7369743a20564950204f6e6c7960781b604482015290519081900360640190fd5b6141bd846132e5565b6141c784866130e3565b8154604080516370a0823160e01b815230600482015290516000926001600160a01b0316916370a08231916024808301926020929190829003018186803b15801561421157600080fd5b505afa158015614225573d6000803e3d6000fd5b505050506040513d602081101561423b57600080fd5b5051835490915061425d906001600160a01b031687308763ffffffff6147b616565b8254604080516370a0823160e01b815230600482015290516000926001600160a01b0316916370a08231916024808301926020929190829003018186803b1580156142a757600080fd5b505afa1580156142bb573d6000803e3d6000fd5b505050506040513d60208110156142d157600080fd5b5051905060006142e7828463ffffffff6131ae16565b60028601549091506142ff908263ffffffff6131f016565b60028601558354614316908263ffffffff6131f016565b808555600486015461433c91670de0b6b3a764000091611379919063ffffffff61324a16565b600185015543600285015560065460408051630f72908960e01b815290516001600160a01b03909216916323d14d60918b918491630f729089916004808301926020929190829003018186803b15801561439557600080fd5b505afa1580156143a9573d6000803e3d6000fd5b505050506040513d60208110156143bf57600080fd5b5051601054604080516001600160e01b031960e087901b1681526001600160a01b0390941660048501526024840192909252604483015251606480830192600092919082900301818387803b15801561441757600080fd5b505af115801561442b573d6000803e3d6000fd5b50506040805184815290518a93506001600160a01b038c1692507f90890809c654f11d6e72a28fa60149770a0d11ec6c92319d6ceb2bb0a4ea1a159181900360200190a35050505050505050565b80600d838154811061448757fe5b90600052602060002090600902016006015414156144ec576040805162461bcd60e51b815260206004820152601e60248201527f536574566970416d6f756e743a204e6f20616d6f756e74206368616e67650000604482015290519081900360640190fd5b80600d83815481106144fa57fe5b90600052602060002090600902016006018190555081336001600160a01b03167feba8be26da52859a63d0bdaec7557e3e327eb3129145d6e151da471fce154c65836040518082815260200191505060405180910390a35050565b600081848411156145e45760405162461bcd60e51b81526004018080602001828103825283818151815260200191508051906020019080838360005b838110156145a9578181015183820152602001614591565b50505050905090810190601f1680156145d65780820380516001836020036101000a031916815260200191505b509250505060405180910390fd5b505050900390565b6000818361463b5760405162461bcd60e51b81526020600482018181528351602484015283519092839260449091019190850190808383600083156145a9578181015183820152602001614591565b50600083858161464757fe5b0495945050505050565b8015806146d7575060408051636eb1769f60e11b81523060048201526001600160a01b03848116602483015291519185169163dd62ed3e91604480820192602092909190829003018186803b1580156146a957600080fd5b505afa1580156146bd573d6000803e3d6000fd5b505050506040513d60208110156146d357600080fd5b5051155b6147125760405162461bcd60e51b8152600401808060200182810382526036815260200180614cc46036913960400191505060405180910390fd5b604080516001600160a01b038416602482015260448082018490528251808303909101815260649091019091526020810180516001600160e01b031663095ea7b360e01b1790526116c390849061480c565b604080516001600160a01b038416602482015260448082018490528251808303909101815260649091019091526020810180516001600160e01b031663a9059cbb60e01b1790526116c390849061480c565b604080516001600160a01b0380861660248301528416604482015260648082018490528251808303909101815260849091019091526020810180516001600160e01b03166323b872dd60e01b1790526116519085905b6060614861826040518060400160405280602081526020017f5361666545524332303a206c6f772d6c6576656c2063616c6c206661696c6564815250856001600160a01b03166148bd9092919063ffffffff16565b8051909150156116c35780806020019051602081101561488057600080fd5b50516116c35760405162461bcd60e51b815260040180806020018281038252602a815260200180614c78602a913960400191505060405180910390fd5b60606148cc84846000856148d4565b949350505050565b6060824710156149155760405162461bcd60e51b8152600401808060200182810382526026815260200180614ba56026913960400191505060405180910390fd5b61491e85614a30565b61496f576040805162461bcd60e51b815260206004820152601d60248201527f416464726573733a2063616c6c20746f206e6f6e2d636f6e7472616374000000604482015290519081900360640190fd5b60006060866001600160a01b031685876040518082805190602001908083835b602083106149ae5780518252601f19909201916020918201910161498f565b6001836020036101000a03801982511681845116808217855250505050505090500191505060006040518083038185875af1925050503d8060008114614a10576040519150601f19603f3d011682016040523d82523d6000602084013e614a15565b606091505b5091509150614a25828286614a36565b979650505050505050565b3b151590565b60608315614a45575081612652565b825115614a555782518084602001fd5b60405162461bcd60e51b81526020600482018181528451602484015284518593919283926044019190850190808383600083156145a957818101518382015260200161459156fe416e795374616b653a204f6e6c792070726576696f757320416e795374616b6520616c6c6f7765644f776e61626c653a206e6577206f776e657220697320746865207a65726f2061646472657373536574476f7665726e616e63653a204e6f20676f7665726e616e6365206368616e676557697468647261773a207573657220616d6f756e7420696e73756666696369656e7457697468647261773a20616d6f756e74206d7573742062652067726561746572207468616e207a65726f416e795374616b653a204d7573742077616974203120626c6f636b0000000000456d657267656e637957697468647261773a207573657220616d6f756e7420696e73756666696369656e74416464726573733a20696e73756666696369656e742062616c616e636520666f722063616c6c4465706f7369743a2043616e6e6f74206465706f736974207a65726f20746f6b656e73536166654d6174683a206d756c7469706c69636174696f6e206f766572666c6f774f776e61626c653a2063616c6c6572206973206e6f7420746865206f776e6572416464506f6f6c3a20546f6b656e20706f6f6c20616c726561647920616464656453776565703a2043616e6e6f7420776974686472617720626c61636b6c697374656420746f6b656e5361666545524332303a204552433230206f7065726174696f6e20646964206e6f742073756363656564536574556e69737761703a204d7573742073657420756e69737761702076616c75655361666545524332303a20617070726f76652066726f6d206e6f6e2d7a65726f20746f206e6f6e2d7a65726f20616c6c6f77616e6365476f763a204f6e6c7920476f7665726e6f727300000000000000000000000000a26469706673582212201e9d893608f6b42e006f9ca20d6e82cd936c11c1104a6e0f6fb9611987f9c40e64736f6c63430006060033536574476f7665726e616e63653a204e6f20676f7665726e616e6365206368616e6765",
  "devdoc": {
    "methods": {}
  },
  "userdoc": {
    "methods": {}
  },
  "storageLayout": {
    "storage": [
      {
        "astId": 8377,
        "contract": "contracts/AnyStakeV2.sol:AnyStakeV2",
        "label": "_owner",
        "offset": 0,
        "slot": "0",
        "type": "t_address"
      },
      {
        "astId": 8172,
        "contract": "contracts/AnyStakeV2.sol:AnyStakeV2",
        "label": "governance",
        "offset": 0,
        "slot": "1",
        "type": "t_address"
      },
      {
        "astId": 11561,
        "contract": "contracts/AnyStakeV2.sol:AnyStakeV2",
        "label": "router",
        "offset": 0,
        "slot": "2",
        "type": "t_address"
      },
      {
        "astId": 11563,
        "contract": "contracts/AnyStakeV2.sol:AnyStakeV2",
        "label": "factory",
        "offset": 0,
        "slot": "3",
        "type": "t_address"
      },
      {
        "astId": 11565,
        "contract": "contracts/AnyStakeV2.sol:AnyStakeV2",
        "label": "weth",
        "offset": 0,
        "slot": "4",
        "type": "t_address"
      },
      {
        "astId": 11567,
        "contract": "contracts/AnyStakeV2.sol:AnyStakeV2",
        "label": "DeFiatToken",
        "offset": 0,
        "slot": "5",
        "type": "t_address"
      },
      {
        "astId": 11569,
        "contract": "contracts/AnyStakeV2.sol:AnyStakeV2",
        "label": "DeFiatPoints",
        "offset": 0,
        "slot": "6",
        "type": "t_address"
      },
      {
        "astId": 11571,
        "contract": "contracts/AnyStakeV2.sol:AnyStakeV2",
        "label": "DeFiatTokenLp",
        "offset": 0,
        "slot": "7",
        "type": "t_address"
      },
      {
        "astId": 11573,
        "contract": "contracts/AnyStakeV2.sol:AnyStakeV2",
        "label": "DeFiatPointsLp",
        "offset": 0,
        "slot": "8",
        "type": "t_address"
      },
      {
        "astId": 11577,
        "contract": "contracts/AnyStakeV2.sol:AnyStakeV2",
        "label": "_blacklistedAdminWithdraw",
        "offset": 0,
        "slot": "9",
        "type": "t_mapping(t_address,t_bool)"
      },
      {
        "astId": 4059,
        "contract": "contracts/AnyStakeV2.sol:AnyStakeV2",
        "label": "anystake",
        "offset": 0,
        "slot": "10",
        "type": "t_address"
      },
      {
        "astId": 4061,
        "contract": "contracts/AnyStakeV2.sol:AnyStakeV2",
        "label": "migrator",
        "offset": 0,
        "slot": "11",
        "type": "t_address"
      },
      {
        "astId": 4063,
        "contract": "contracts/AnyStakeV2.sol:AnyStakeV2",
        "label": "vault",
        "offset": 0,
        "slot": "12",
        "type": "t_address"
      },
      {
        "astId": 4066,
        "contract": "contracts/AnyStakeV2.sol:AnyStakeV2",
        "label": "poolInfo",
        "offset": 0,
        "slot": "13",
        "type": "t_array(t_struct(PoolInfo)4057_storage)dyn_storage"
      },
      {
        "astId": 4072,
        "contract": "contracts/AnyStakeV2.sol:AnyStakeV2",
        "label": "userInfo",
        "offset": 0,
        "slot": "14",
        "type": "t_mapping(t_uint256,t_mapping(t_address,t_struct(UserInfo)4038_storage))"
      },
      {
        "astId": 4076,
        "contract": "contracts/AnyStakeV2.sol:AnyStakeV2",
        "label": "pids",
        "offset": 0,
        "slot": "15",
        "type": "t_mapping(t_address,t_uint256)"
      },
      {
        "astId": 4078,
        "contract": "contracts/AnyStakeV2.sol:AnyStakeV2",
        "label": "pointStipend",
        "offset": 0,
        "slot": "16",
        "type": "t_uint256"
      },
      {
        "astId": 4080,
        "contract": "contracts/AnyStakeV2.sol:AnyStakeV2",
        "label": "rewardsPerAllocPoint",
        "offset": 0,
        "slot": "17",
        "type": "t_uint256"
      },
      {
        "astId": 4082,
        "contract": "contracts/AnyStakeV2.sol:AnyStakeV2",
        "label": "totalAllocPoint",
        "offset": 0,
        "slot": "18",
        "type": "t_uint256"
      }
    ],
    "types": {
      "t_address": {
        "encoding": "inplace",
        "label": "address",
        "numberOfBytes": "20"
      },
      "t_array(t_struct(PoolInfo)4057_storage)dyn_storage": {
        "base": "t_struct(PoolInfo)4057_storage",
        "encoding": "dynamic_array",
        "label": "struct AnyStakeV2.PoolInfo[]",
        "numberOfBytes": "32"
      },
      "t_bool": {
        "encoding": "inplace",
        "label": "bool",
        "numberOfBytes": "1"
      },
      "t_mapping(t_address,t_bool)": {
        "encoding": "mapping",
        "key": "t_address",
        "label": "mapping(address => bool)",
        "numberOfBytes": "32",
        "value": "t_bool"
      },
      "t_mapping(t_address,t_struct(UserInfo)4038_storage)": {
        "encoding": "mapping",
        "key": "t_address",
        "label": "mapping(address => struct AnyStakeV2.UserInfo)",
        "numberOfBytes": "32",
        "value": "t_struct(UserInfo)4038_storage"
      },
      "t_mapping(t_address,t_uint256)": {
        "encoding": "mapping",
        "key": "t_address",
        "label": "mapping(address => uint256)",
        "numberOfBytes": "32",
        "value": "t_uint256"
      },
      "t_mapping(t_uint256,t_mapping(t_address,t_struct(UserInfo)4038_storage))": {
        "encoding": "mapping",
        "key": "t_uint256",
        "label": "mapping(uint256 => mapping(address => struct AnyStakeV2.UserInfo))",
        "numberOfBytes": "32",
        "value": "t_mapping(t_address,t_struct(UserInfo)4038_storage)"
      },
      "t_struct(PoolInfo)4057_storage": {
        "encoding": "inplace",
        "label": "struct AnyStakeV2.PoolInfo",
        "members": [
          {
            "astId": 4040,
            "contract": "contracts/AnyStakeV2.sol:AnyStakeV2",
            "label": "stakedToken",
            "offset": 0,
            "slot": "0",
            "type": "t_address"
          },
          {
            "astId": 4042,
            "contract": "contracts/AnyStakeV2.sol:AnyStakeV2",
            "label": "lpToken",
            "offset": 0,
            "slot": "1",
            "type": "t_address"
          },
          {
            "astId": 4044,
            "contract": "contracts/AnyStakeV2.sol:AnyStakeV2",
            "label": "totalStaked",
            "offset": 0,
            "slot": "2",
            "type": "t_uint256"
          },
          {
            "astId": 4046,
            "contract": "contracts/AnyStakeV2.sol:AnyStakeV2",
            "label": "allocPoint",
            "offset": 0,
            "slot": "3",
            "type": "t_uint256"
          },
          {
            "astId": 4048,
            "contract": "contracts/AnyStakeV2.sol:AnyStakeV2",
            "label": "rewardsPerShare",
            "offset": 0,
            "slot": "4",
            "type": "t_uint256"
          },
          {
            "astId": 4050,
            "contract": "contracts/AnyStakeV2.sol:AnyStakeV2",
            "label": "lastRewardBlock",
            "offset": 0,
            "slot": "5",
            "type": "t_uint256"
          },
          {
            "astId": 4052,
            "contract": "contracts/AnyStakeV2.sol:AnyStakeV2",
            "label": "vipAmount",
            "offset": 0,
            "slot": "6",
            "type": "t_uint256"
          },
          {
            "astId": 4054,
            "contract": "contracts/AnyStakeV2.sol:AnyStakeV2",
            "label": "stakingFee",
            "offset": 0,
            "slot": "7",
            "type": "t_uint256"
          },
          {
            "astId": 4056,
            "contract": "contracts/AnyStakeV2.sol:AnyStakeV2",
            "label": "rewardDebt",
            "offset": 0,
            "slot": "8",
            "type": "t_uint256"
          }
        ],
        "numberOfBytes": "288"
      },
      "t_struct(UserInfo)4038_storage": {
        "encoding": "inplace",
        "label": "struct AnyStakeV2.UserInfo",
        "members": [
          {
            "astId": 4033,
            "contract": "contracts/AnyStakeV2.sol:AnyStakeV2",
            "label": "amount",
            "offset": 0,
            "slot": "0",
            "type": "t_uint256"
          },
          {
            "astId": 4035,
            "contract": "contracts/AnyStakeV2.sol:AnyStakeV2",
            "label": "rewardDebt",
            "offset": 0,
            "slot": "1",
            "type": "t_uint256"
          },
          {
            "astId": 4037,
            "contract": "contracts/AnyStakeV2.sol:AnyStakeV2",
            "label": "lastRewardBlock",
            "offset": 0,
            "slot": "2",
            "type": "t_uint256"
          }
        ],
        "numberOfBytes": "96"
      },
      "t_uint256": {
        "encoding": "inplace",
        "label": "uint256",
        "numberOfBytes": "32"
      }
    }
  }
}