{
  "address": "0x06A38AD939Cc766669A148e03c20832cE1A957fa",
  "abi": [
    {
      "inputs": [
        {
          "internalType": "address",
          "name": "_vault",
          "type": "address"
        },
        {
          "internalType": "address",
          "name": "_router",
          "type": "address"
        },
        {
          "internalType": "address",
          "name": "_gov",
          "type": "address"
        },
        {
          "internalType": "address",
          "name": "_points",
          "type": "address"
        },
        {
          "internalType": "address",
          "name": "_token",
          "type": "address"
        },
        {
          "internalType": "address",
          "name": "_anystake",
          "type": "address"
        },
        {
          "internalType": "address",
          "name": "_regulator",
          "type": "address"
        }
      ],
      "stateMutability": "nonpayable",
      "type": "constructor"
    },
    {
      "anonymous": false,
      "inputs": [
        {
          "indexed": true,
          "internalType": "address",
          "name": "user",
          "type": "address"
        },
        {
          "indexed": false,
          "internalType": "address",
          "name": "anystake",
          "type": "address"
        }
      ],
      "name": "AnyStakeUpdated",
      "type": "event"
    },
    {
      "anonymous": false,
      "inputs": [
        {
          "indexed": true,
          "internalType": "address",
          "name": "token",
          "type": "address"
        },
        {
          "indexed": false,
          "internalType": "uint256",
          "name": "tokenAmount",
          "type": "uint256"
        },
        {
          "indexed": false,
          "internalType": "uint256",
          "name": "buybackAmount",
          "type": "uint256"
        }
      ],
      "name": "DeFiatBuyback",
      "type": "event"
    },
    {
      "anonymous": false,
      "inputs": [
        {
          "indexed": true,
          "internalType": "address",
          "name": "user",
          "type": "address"
        },
        {
          "indexed": false,
          "internalType": "uint256",
          "name": "distributionRate",
          "type": "uint256"
        }
      ],
      "name": "DistributionRateUpdated",
      "type": "event"
    },
    {
      "anonymous": false,
      "inputs": [
        {
          "indexed": true,
          "internalType": "address",
          "name": "user",
          "type": "address"
        },
        {
          "indexed": false,
          "internalType": "address",
          "name": "governance",
          "type": "address"
        }
      ],
      "name": "GovernanceUpdated",
      "type": "event"
    },
    {
      "anonymous": false,
      "inputs": [
        {
          "indexed": true,
          "internalType": "address",
          "name": "user",
          "type": "address"
        },
        {
          "indexed": false,
          "internalType": "address",
          "name": "migrator",
          "type": "address"
        }
      ],
      "name": "Migrate",
      "type": "event"
    },
    {
      "anonymous": false,
      "inputs": [
        {
          "indexed": true,
          "internalType": "address",
          "name": "user",
          "type": "address"
        },
        {
          "indexed": false,
          "internalType": "address",
          "name": "migrator",
          "type": "address"
        }
      ],
      "name": "MigratorUpdated",
      "type": "event"
    },
    {
      "anonymous": false,
      "inputs": [
        {
          "indexed": true,
          "internalType": "address",
          "name": "previousOwner",
          "type": "address"
        },
        {
          "indexed": true,
          "internalType": "address",
          "name": "newOwner",
          "type": "address"
        }
      ],
      "name": "OwnershipTransferred",
      "type": "event"
    },
    {
      "anonymous": false,
      "inputs": [
        {
          "indexed": true,
          "internalType": "address",
          "name": "token",
          "type": "address"
        },
        {
          "indexed": false,
          "internalType": "uint256",
          "name": "tokenAmount",
          "type": "uint256"
        },
        {
          "indexed": false,
          "internalType": "uint256",
          "name": "buybackAmount",
          "type": "uint256"
        }
      ],
      "name": "PointsBuyback",
      "type": "event"
    },
    {
      "anonymous": false,
      "inputs": [
        {
          "indexed": true,
          "internalType": "address",
          "name": "user",
          "type": "address"
        },
        {
          "indexed": false,
          "internalType": "address",
          "name": "points",
          "type": "address"
        }
      ],
      "name": "PointsUpdated",
      "type": "event"
    },
    {
      "anonymous": false,
      "inputs": [
        {
          "indexed": true,
          "internalType": "address",
          "name": "user",
          "type": "address"
        },
        {
          "indexed": false,
          "internalType": "address",
          "name": "regulator",
          "type": "address"
        }
      ],
      "name": "RegulatorUpdated",
      "type": "event"
    },
    {
      "anonymous": false,
      "inputs": [
        {
          "indexed": true,
          "internalType": "address",
          "name": "user",
          "type": "address"
        },
        {
          "indexed": false,
          "internalType": "uint256",
          "name": "bondedAmount",
          "type": "uint256"
        },
        {
          "indexed": false,
          "internalType": "uint256",
          "name": "bondedLengthBlocks",
          "type": "uint256"
        }
      ],
      "name": "RewardsBonded",
      "type": "event"
    },
    {
      "anonymous": false,
      "inputs": [
        {
          "indexed": true,
          "internalType": "address",
          "name": "user",
          "type": "address"
        },
        {
          "indexed": false,
          "internalType": "uint256",
          "name": "anystakeAmount",
          "type": "uint256"
        },
        {
          "indexed": false,
          "internalType": "uint256",
          "name": "regulatorAmount",
          "type": "uint256"
        }
      ],
      "name": "RewardsDistributed",
      "type": "event"
    },
    {
      "anonymous": false,
      "inputs": [
        {
          "indexed": true,
          "internalType": "address",
          "name": "user",
          "type": "address"
        },
        {
          "indexed": true,
          "internalType": "address",
          "name": "token",
          "type": "address"
        },
        {
          "indexed": false,
          "internalType": "uint256",
          "name": "amount",
          "type": "uint256"
        }
      ],
      "name": "TokenSweep",
      "type": "event"
    },
    {
      "anonymous": false,
      "inputs": [
        {
          "indexed": true,
          "internalType": "address",
          "name": "user",
          "type": "address"
        },
        {
          "indexed": false,
          "internalType": "address",
          "name": "token",
          "type": "address"
        }
      ],
      "name": "TokenUpdated",
      "type": "event"
    },
    {
      "anonymous": false,
      "inputs": [
        {
          "indexed": true,
          "internalType": "address",
          "name": "user",
          "type": "address"
        },
        {
          "indexed": false,
          "internalType": "address",
          "name": "router",
          "type": "address"
        },
        {
          "indexed": false,
          "internalType": "address",
          "name": "weth",
          "type": "address"
        },
        {
          "indexed": false,
          "internalType": "address",
          "name": "factory",
          "type": "address"
        }
      ],
      "name": "UniswapUpdated",
      "type": "event"
    },
    {
      "inputs": [],
      "name": "DeFiatPoints",
      "outputs": [
        {
          "internalType": "address",
          "name": "",
          "type": "address"
        }
      ],
      "stateMutability": "view",
      "type": "function"
    },
    {
      "inputs": [],
      "name": "DeFiatPointsLp",
      "outputs": [
        {
          "internalType": "address",
          "name": "",
          "type": "address"
        }
      ],
      "stateMutability": "view",
      "type": "function"
    },
    {
      "inputs": [],
      "name": "DeFiatToken",
      "outputs": [
        {
          "internalType": "address",
          "name": "",
          "type": "address"
        }
      ],
      "stateMutability": "view",
      "type": "function"
    },
    {
      "inputs": [],
      "name": "DeFiatTokenLp",
      "outputs": [
        {
          "internalType": "address",
          "name": "",
          "type": "address"
        }
      ],
      "stateMutability": "view",
      "type": "function"
    },
    {
      "inputs": [
        {
          "internalType": "uint256",
          "name": "_amount",
          "type": "uint256"
        },
        {
          "internalType": "uint256",
          "name": "_blocks",
          "type": "uint256"
        }
      ],
      "name": "addBondedRewards",
      "outputs": [],
      "stateMutability": "nonpayable",
      "type": "function"
    },
    {
      "inputs": [],
      "name": "anystake",
      "outputs": [
        {
          "internalType": "address",
          "name": "",
          "type": "address"
        }
      ],
      "stateMutability": "view",
      "type": "function"
    },
    {
      "inputs": [
        {
          "internalType": "address",
          "name": "",
          "type": "address"
        }
      ],
      "name": "authorized",
      "outputs": [
        {
          "internalType": "bool",
          "name": "",
          "type": "bool"
        }
      ],
      "stateMutability": "view",
      "type": "function"
    },
    {
      "inputs": [],
      "name": "bondedRewards",
      "outputs": [
        {
          "internalType": "uint256",
          "name": "",
          "type": "uint256"
        }
      ],
      "stateMutability": "view",
      "type": "function"
    },
    {
      "inputs": [],
      "name": "bondedRewardsBlocksRemaining",
      "outputs": [
        {
          "internalType": "uint256",
          "name": "",
          "type": "uint256"
        }
      ],
      "stateMutability": "view",
      "type": "function"
    },
    {
      "inputs": [],
      "name": "bondedRewardsPerBlock",
      "outputs": [
        {
          "internalType": "uint256",
          "name": "",
          "type": "uint256"
        }
      ],
      "stateMutability": "view",
      "type": "function"
    },
    {
      "inputs": [
        {
          "internalType": "address",
          "name": "token",
          "type": "address"
        },
        {
          "internalType": "uint256",
          "name": "amount",
          "type": "uint256"
        }
      ],
      "name": "buyDeFiatWithTokens",
      "outputs": [],
      "stateMutability": "nonpayable",
      "type": "function"
    },
    {
      "inputs": [
        {
          "internalType": "address",
          "name": "token",
          "type": "address"
        },
        {
          "internalType": "uint256",
          "name": "amount",
          "type": "uint256"
        }
      ],
      "name": "buyPointsWithTokens",
      "outputs": [],
      "stateMutability": "nonpayable",
      "type": "function"
    },
    {
      "inputs": [],
      "name": "calculateRewards",
      "outputs": [],
      "stateMutability": "nonpayable",
      "type": "function"
    },
    {
      "inputs": [
        {
          "internalType": "address",
          "name": "recipient",
          "type": "address"
        },
        {
          "internalType": "uint256",
          "name": "amount",
          "type": "uint256"
        }
      ],
      "name": "distributeRewards",
      "outputs": [],
      "stateMutability": "nonpayable",
      "type": "function"
    },
    {
      "inputs": [],
      "name": "distributionRate",
      "outputs": [
        {
          "internalType": "uint256",
          "name": "",
          "type": "uint256"
        }
      ],
      "stateMutability": "view",
      "type": "function"
    },
    {
      "inputs": [],
      "name": "factory",
      "outputs": [
        {
          "internalType": "address",
          "name": "",
          "type": "address"
        }
      ],
      "stateMutability": "view",
      "type": "function"
    },
    {
      "inputs": [
        {
          "internalType": "address",
          "name": "token",
          "type": "address"
        },
        {
          "internalType": "address",
          "name": "lpToken",
          "type": "address"
        }
      ],
      "name": "getTokenPrice",
      "outputs": [
        {
          "internalType": "uint256",
          "name": "",
          "type": "uint256"
        }
      ],
      "stateMutability": "view",
      "type": "function"
    },
    {
      "inputs": [],
      "name": "governance",
      "outputs": [
        {
          "internalType": "address",
          "name": "",
          "type": "address"
        }
      ],
      "stateMutability": "view",
      "type": "function"
    },
    {
      "inputs": [
        {
          "internalType": "address",
          "name": "_token",
          "type": "address"
        }
      ],
      "name": "isBlacklistedAdminWithdraw",
      "outputs": [
        {
          "internalType": "bool",
          "name": "",
          "type": "bool"
        }
      ],
      "stateMutability": "view",
      "type": "function"
    },
    {
      "inputs": [],
      "name": "kill",
      "outputs": [],
      "stateMutability": "nonpayable",
      "type": "function"
    },
    {
      "inputs": [],
      "name": "lastDistributionBlock",
      "outputs": [
        {
          "internalType": "uint256",
          "name": "",
          "type": "uint256"
        }
      ],
      "stateMutability": "view",
      "type": "function"
    },
    {
      "inputs": [],
      "name": "migrate",
      "outputs": [],
      "stateMutability": "nonpayable",
      "type": "function"
    },
    {
      "inputs": [],
      "name": "migrateTo",
      "outputs": [],
      "stateMutability": "nonpayable",
      "type": "function"
    },
    {
      "inputs": [],
      "name": "migrator",
      "outputs": [
        {
          "internalType": "address",
          "name": "",
          "type": "address"
        }
      ],
      "stateMutability": "view",
      "type": "function"
    },
    {
      "inputs": [],
      "name": "owner",
      "outputs": [
        {
          "internalType": "address",
          "name": "",
          "type": "address"
        }
      ],
      "stateMutability": "view",
      "type": "function"
    },
    {
      "inputs": [],
      "name": "pendingRewards",
      "outputs": [
        {
          "internalType": "uint256",
          "name": "",
          "type": "uint256"
        }
      ],
      "stateMutability": "view",
      "type": "function"
    },
    {
      "inputs": [],
      "name": "regulator",
      "outputs": [
        {
          "internalType": "address",
          "name": "",
          "type": "address"
        }
      ],
      "stateMutability": "view",
      "type": "function"
    },
    {
      "inputs": [],
      "name": "renounceOwnership",
      "outputs": [],
      "stateMutability": "nonpayable",
      "type": "function"
    },
    {
      "inputs": [],
      "name": "router",
      "outputs": [
        {
          "internalType": "address",
          "name": "",
          "type": "address"
        }
      ],
      "stateMutability": "view",
      "type": "function"
    },
    {
      "inputs": [
        {
          "internalType": "address",
          "name": "_anystake",
          "type": "address"
        }
      ],
      "name": "setAnyStake",
      "outputs": [],
      "stateMutability": "nonpayable",
      "type": "function"
    },
    {
      "inputs": [
        {
          "internalType": "uint256",
          "name": "_distributionRate",
          "type": "uint256"
        }
      ],
      "name": "setDistributionRate",
      "outputs": [],
      "stateMutability": "nonpayable",
      "type": "function"
    },
    {
      "inputs": [
        {
          "internalType": "address",
          "name": "_governance",
          "type": "address"
        }
      ],
      "name": "setGovernance",
      "outputs": [],
      "stateMutability": "nonpayable",
      "type": "function"
    },
    {
      "inputs": [
        {
          "internalType": "address",
          "name": "_migrator",
          "type": "address"
        }
      ],
      "name": "setMigrator",
      "outputs": [],
      "stateMutability": "nonpayable",
      "type": "function"
    },
    {
      "inputs": [
        {
          "internalType": "address",
          "name": "_points",
          "type": "address"
        }
      ],
      "name": "setPoints",
      "outputs": [],
      "stateMutability": "nonpayable",
      "type": "function"
    },
    {
      "inputs": [
        {
          "internalType": "address",
          "name": "_regulator",
          "type": "address"
        }
      ],
      "name": "setRegulator",
      "outputs": [],
      "stateMutability": "nonpayable",
      "type": "function"
    },
    {
      "inputs": [
        {
          "internalType": "address",
          "name": "_token",
          "type": "address"
        }
      ],
      "name": "setToken",
      "outputs": [],
      "stateMutability": "nonpayable",
      "type": "function"
    },
    {
      "inputs": [
        {
          "internalType": "address",
          "name": "_router",
          "type": "address"
        }
      ],
      "name": "setUniswap",
      "outputs": [],
      "stateMutability": "nonpayable",
      "type": "function"
    },
    {
      "inputs": [
        {
          "internalType": "address",
          "name": "_token",
          "type": "address"
        }
      ],
      "name": "sweep",
      "outputs": [],
      "stateMutability": "nonpayable",
      "type": "function"
    },
    {
      "inputs": [],
      "name": "totalPointsBuybackAmount",
      "outputs": [
        {
          "internalType": "uint256",
          "name": "",
          "type": "uint256"
        }
      ],
      "stateMutability": "view",
      "type": "function"
    },
    {
      "inputs": [],
      "name": "totalRewardsDistributed",
      "outputs": [
        {
          "internalType": "uint256",
          "name": "",
          "type": "uint256"
        }
      ],
      "stateMutability": "view",
      "type": "function"
    },
    {
      "inputs": [],
      "name": "totalTokenBuybackAmount",
      "outputs": [
        {
          "internalType": "uint256",
          "name": "",
          "type": "uint256"
        }
      ],
      "stateMutability": "view",
      "type": "function"
    },
    {
      "inputs": [
        {
          "internalType": "address",
          "name": "newOwner",
          "type": "address"
        }
      ],
      "name": "transferOwnership",
      "outputs": [],
      "stateMutability": "nonpayable",
      "type": "function"
    },
    {
      "inputs": [],
      "name": "vault",
      "outputs": [
        {
          "internalType": "address",
          "name": "",
          "type": "address"
        }
      ],
      "stateMutability": "view",
      "type": "function"
    },
    {
      "inputs": [],
      "name": "weth",
      "outputs": [
        {
          "internalType": "address",
          "name": "",
          "type": "address"
        }
      ],
      "stateMutability": "view",
      "type": "function"
    }
  ],
  "transactionHash": "0xc72ada5bfaccd120ec4e06c439e73ea88003406aefed10920bc9ceb28b743337",
  "args": [
    "0x7b213Ee4ec0f3441926155716d683dc8b3a87aE3",
    "0x7a250d5630B4cF539739dF2C5dAcb4c659F2488D",
    "0xfe521318261CAc118981d532C0E8D3C2Bf4C1dcE",
    "0xb8b8B746ab4B983C0960501146ba6079c1fd2Af3",
    "0xB571d40e4A7087C1B73ce6a3f29EaDfCA022C5B2",
    "0x9b90eF849E9B07b3f7cab85A4b44925511cB27cF",
    "0x43E042290c18d8Ae0B0F05355fC82e477f1579a9"
  ],
  "solcInputHash": "63243df9e08628bc6dac3a0b8e5985fb",
  "bytecode": "0x60806040523480156200001157600080fd5b506040516200413b3803806200413b833981810160405260e08110156200003757600080fd5b508051602082015160408301516060840151608085015160a086015160c09096015194959394929391929091908585858560006200007d6001600160e01b03620003d116565b600080546001600160a01b0319166001600160a01b0383169081178255604051929350917f8be0079c531659141344cd1fd0a4f28419497f9722a3daafe3b4186f6b6457e0908290a350620000db836001600160e01b03620003d516565b600280546001600160a01b038087166001600160a01b031992831617928390556006805486831690841617905560058054858316931692909217909155604080516315ab88c960e31b81529051929091169163ad5c464891600480820192602092909190829003018186803b1580156200015457600080fd5b505afa15801562000169573d6000803e3d6000fd5b505050506040513d60208110156200018057600080fd5b5051600480546001600160a01b0319166001600160a01b039283161781556002546040805163c45a015560e01b81529051919093169263c45a01559281810192602092909190829003018186803b158015620001db57600080fd5b505afa158015620001f0573d6000803e3d6000fd5b505050506040513d60208110156200020757600080fd5b5051600380546001600160a01b0319166001600160a01b039283161790819055600480546040805163e6a4390560e01b815286861693810193909352908416602483015251919092169163e6a43905916044808301926020929190829003018186803b1580156200027757600080fd5b505afa1580156200028c573d6000803e3d6000fd5b505050506040513d6020811015620002a357600080fd5b5051600780546001600160a01b0319166001600160a01b03928316179055600354600480546040805163e6a4390560e01b815287861693810193909352908416602483015251919092169163e6a43905916044808301926020929190829003018186803b1580156200031457600080fd5b505afa15801562000329573d6000803e3d6000fd5b505050506040513d60208110156200034057600080fd5b5051600880546001600160a01b03199081166001600160a01b0393841617909155600a805482169d83169d909d17909c55600b80548d169782169788179055600c8054909c169516948517909a5550506102bc601255506000918252600e6020526040808320805460ff19908116600190811790925592845292208054909116909117905550620004829350505050565b3390565b6001546001600160a01b0382811691161415620004245760405162461bcd60e51b8152600401808060200182810382526023815260200180620041186023913960400191505060405180910390fd5b600180546001600160a01b038084166001600160a01b03199092169190911791829055604080519290911682525133917f434a2db650703b36c824e745330d6397cdaa9ee2cc891a4938ae853e1c50b68d919081900360200190a250565b613c8680620004926000396000f3fe608060405234801561001057600080fd5b50600436106102745760003560e01c8063917f973711610151578063cde0a4f8116100c3578063ee17254611610087578063ee172546146105db578063f2bc79a3146105e3578063f2fde38b146105eb578063f887ea4014610611578063fbfa77cf14610619578063fdcc7b081461062157610274565b8063cde0a4f814610571578063d3917cd514610597578063d42e12541461059f578063dd8fee14146105cb578063eded3fda146105d357610274565b8063afa9986011610115578063afa99860146104fd578063b2d6b0041461052b578063b5673f0414610533578063b91816111461053b578063c45a015514610561578063c55c0c341461056957610274565b8063917f97371461047557806398c6e7601461047d5780639f25cde714610485578063a8031a1d146104ab578063ab033ea9146104d757610274565b8063460d48a0116101ea578063715018a6116101ae578063715018a6146104095780637bef5a92146104115780637cd07e47146104375780638da5cb5b1461043f5780638efecdda146104475780638fd3ab801461046d57610274565b8063460d48a0146103a2578063463d7ac3146103ce5780634ad83dd7146103d6578063521adaf5146103f95780635aa6e6751461040157610274565b806321603e8b1161023c57806321603e8b1461030657806323cf31181461034057806337710aca146103665780633e50de301461038a5780633fc8cef31461039257806341c0e1b51461039a57610274565b806301681a621461027957806302cb6b7f146102a1578063039f3c98146102bb578063144fa6d7146102c357806319983251146102e9575b600080fd5b61029f6004803603602081101561028f57600080fd5b50356001600160a01b0316610629565b005b6102a96106e5565b60408051918252519081900360200190f35b6102a96106eb565b61029f600480360360208110156102d957600080fd5b50356001600160a01b03166106f1565b61029f600480360360208110156102ff57600080fd5b5035610980565b61032c6004803603602081101561031c57600080fd5b50356001600160a01b0316610b2b565b604080519115158252519081900360200190f35b61029f6004803603602081101561035657600080fd5b50356001600160a01b0316610b49565b61036e610cd6565b604080516001600160a01b039092168252519081900360200190f35b61029f610ce5565b61036e6110a3565b61029f6110b2565b61029f600480360360408110156103b857600080fd5b506001600160a01b03813516906020013561110d565b61036e6111dc565b61029f600480360360408110156103ec57600080fd5b50803590602001356111eb565b6102a961144f565b61036e611455565b61029f611464565b61029f6004803603602081101561042757600080fd5b50356001600160a01b0316611506565b61036e6116fb565b61036e61170a565b61029f6004803603602081101561045d57600080fd5b50356001600160a01b0316611719565b61029f611a18565b61036e611c96565b61029f611ca5565b61029f6004803603602081101561049b57600080fd5b50356001600160a01b03166120ad565b61029f600480360360408110156104c157600080fd5b506001600160a01b03813516906020013561233c565b61029f600480360360208110156104ed57600080fd5b50356001600160a01b03166123bc565b6102a96004803603604081101561051357600080fd5b506001600160a01b03813581169160200135166124a0565b6102a96127d8565b6102a96127de565b61032c6004803603602081101561055157600080fd5b50356001600160a01b03166127e4565b61036e6127f9565b6102a9612808565b61029f6004803603602081101561058757600080fd5b50356001600160a01b031661280e565b61036e6129ed565b61029f600480360360408110156105b557600080fd5b506001600160a01b0381351690602001356129fc565b61036e612af5565b6102a9612b04565b6102a9612b0a565b6102a9612b10565b61029f6004803603602081101561060157600080fd5b50356001600160a01b0316612b16565b61036e612c0e565b61036e612c1d565b61036e612c2c565b610631612c3b565b6000546001600160a01b03908116911614610681576040805162461bcd60e51b81526020600482018190526024820152600080516020613ac9833981519152604482015290519081900360640190fd5b6001600160a01b03811660009081526009602052604090205460ff16156106d95760405162461bcd60e51b8152600401808060200182810382526028815260200180613b126028913960400191505060405180910390fd5b6106e281612c3f565b50565b60125481565b60115481565b60015460408051630f9e0f3360e31b815233600482015290516002926001600160a01b031691637cf07998916024808301926020929190829003018186803b15801561073c57600080fd5b505afa158015610750573d6000803e3d6000fd5b505050506040513d602081101561076657600080fd5b505110158061078d575061077861170a565b6001600160a01b0316336001600160a01b0316145b6107cc576040805162461bcd60e51b81526020600482015260136024820152600080516020613c31833981519152604482015290519081900360640190fd5b6005546001600160a01b038281169116141561082f576040805162461bcd60e51b815260206004820152601960248201527f536574546f6b656e3a204e6f20746f6b656e206368616e676500000000000000604482015290519081900360640190fd5b6001600160a01b03811661088a576040805162461bcd60e51b815260206004820152601e60248201527f536574546f6b656e3a204d7573742073657420746f6b656e2076616c75650000604482015290519081900360640190fd5b600580546001600160a01b0319166001600160a01b03838116918217909255600354600480546040805163e6a4390560e01b81529283019490945284166024820152915192169163e6a4390591604480820192602092909190829003018186803b1580156108f757600080fd5b505afa15801561090b573d6000803e3d6000fd5b505050506040513d602081101561092157600080fd5b5051600780546001600160a01b039283166001600160a01b031990911617905560055460408051919092168152905133917f0b1186973f810894b87ab0bfbee422fddcaad21b46dc705a561451bbb6bac117919081900360200190a250565b60015460408051630f9e0f3360e31b815233600482015290516002926001600160a01b031691637cf07998916024808301926020929190829003018186803b1580156109cb57600080fd5b505afa1580156109df573d6000803e3d6000fd5b505050506040513d60208110156109f557600080fd5b5051101580610a1c5750610a0761170a565b6001600160a01b0316336001600160a01b0316145b610a5b576040805162461bcd60e51b81526020600482015260136024820152600080516020613c31833981519152604482015290519081900360640190fd5b601254811415610aac576040805162461bcd60e51b8152602060048201526017602482015276536574526174653a204e6f2072617465206368616e676560481b604482015290519081900360640190fd5b6103e8811115610aed5760405162461bcd60e51b8152600401808060200182810382526024815260200180613bd76024913960400191505060405180910390fd5b601281905560408051828152905133917f795d76dc4b36dc1b4d2a9a512fd59efc329dc639f747c5355cc50c7fad7a9ef2919081900360200190a250565b6001600160a01b031660009081526009602052604090205460ff1690565b60015460408051630f9e0f3360e31b815233600482015290516002926001600160a01b031691637cf07998916024808301926020929190829003018186803b158015610b9457600080fd5b505afa158015610ba8573d6000803e3d6000fd5b505050506040513d6020811015610bbe57600080fd5b5051101580610be55750610bd061170a565b6001600160a01b0316336001600160a01b0316145b610c24576040805162461bcd60e51b81526020600482015260136024820152600080516020613c31833981519152604482015290519081900360640190fd5b6001600160a01b038116610c7f576040805162461bcd60e51b815260206004820152601f60248201527f5365744d69677261746f723a204e6f206d69677261746f72206368616e676500604482015290519081900360640190fd5b600d80546001600160a01b0383166001600160a01b03199091168117909155604080519182525133917f17356f011fa307735bd27bcbcd4ee385789d5155c6e44c093a1936e387f62ae5919081900360200190a250565b6005546001600160a01b031681565b336000908152600e602052604090205460ff16610d335760405162461bcd60e51b815260040180806020018281038252602a815260200180613b3a602a913960400191505060405180910390fd5b6013544311610d41576110a1565b600f54601754600554604080516370a0823160e01b8152306004820152905160009485948594610de6949293610dda936001600160a01b03909216916370a08231916024808301926020929190829003018186803b158015610da257600080fd5b505afa158015610db6573d6000803e3d6000fd5b505050506040513d6020811015610dcc57600080fd5b50519063ffffffff612e4e16565b9063ffffffff612e4e16565b90508015610e4f576000610e176103e8610e0b60125485612e9790919063ffffffff16565b9063ffffffff612ef016565b9050610e29848263ffffffff612f3216565b9350610e4b610e3e838363ffffffff612e4e16565b849063ffffffff612f3216565b9250505b600f5415610f2a576000610e6e60135443612e4e90919063ffffffff16565b9050601154811115610e7f57506011545b601054600090610e95908363ffffffff612e9716565b9050600f54811115610ea65750600f545b6000610ec36103e8610e0b60125485612e9790919063ffffffff16565b9050610ed5868263ffffffff612f3216565b9550610ef7610eea838363ffffffff612e4e16565b869063ffffffff612f3216565b600f54909550610f0d908363ffffffff612e4e16565b600f55601154610f23908463ffffffff612e4e16565b6011555050505b82158015610f36575081155b15610f43575050506110a1565b8215610faf57600b5460408051631d3793b160e21b81526004810186905290516001600160a01b03909216916374de4ec49160248082019260009290919082900301818387803b158015610f9657600080fd5b505af1158015610faa573d6000803e3d6000fd5b505050505b811561101b57600c5460408051631d3793b160e21b81526004810185905290516001600160a01b03909216916374de4ec49160248082019260009290919082900301818387803b15801561100257600080fd5b505af1158015611016573d6000803e3d6000fd5b505050505b43601355601754611044908390611038908663ffffffff612f3216565b9063ffffffff612f3216565b601755601654611060908390611038908663ffffffff612f3216565b6016556040805184815260208101849052815133927fe4e801442ed461792c0bdfa7f5c25444d391d67d68422437bd9005796c67cb23928290030190a25050505b565b6004546001600160a01b031681565b6110ba612c3b565b6000546001600160a01b0390811691161461110a576040805162461bcd60e51b81526020600482018190526024820152600080516020613ac9833981519152604482015290519081900360640190fd5b33ff5b336000908152600e602052604090205460ff1661115b5760405162461bcd60e51b815260040180806020018281038252602a815260200180613b3a602a913960400191505060405180910390fd5b600554600090611175906001600160a01b03168484612f8c565b905080156111d757601454611190908263ffffffff612f3216565b601455604080518381526020810183905281516001600160a01b038616927f8c4b0799b6ce686b2d7a9e4d004a11a6cdddf122720ad6663cefe13a25b66c0a928290030190a25b505050565b6008546001600160a01b031681565b60015460408051630f9e0f3360e31b815233600482015290516002926001600160a01b031691637cf07998916024808301926020929190829003018186803b15801561123657600080fd5b505afa15801561124a573d6000803e3d6000fd5b505050506040513d602081101561126057600080fd5b5051101580611287575061127261170a565b6001600160a01b0316336001600160a01b0316145b6112c6576040805162461bcd60e51b81526020600482015260136024820152600080516020613c31833981519152604482015290519081900360640190fd5b600082116113055760405162461bcd60e51b8152600401808060200182810382526029815260200180613ae96029913960400191505060405180910390fd5b600081116113445760405162461bcd60e51b815260040180806020018281038252602d815260200180613a9c602d913960400191505060405180910390fd5b600f54611357908363ffffffff612f3216565b600f5560115461136d908263ffffffff612f3216565b6011819055600f546113849163ffffffff612ef016565b60105543601355600554604080516323b872dd60e01b81523360048201523060248201526044810185905290516001600160a01b03909216916323b872dd916064808201926020929091908290030181600087803b1580156113e557600080fd5b505af11580156113f9573d6000803e3d6000fd5b505050506040513d602081101561140f57600080fd5b50506040805183815260208101839052815133927f029435536d4df0bc1b6615a8ed651f37237d6a5ffb3d7dcea44a2d4dd93c3bcb928290030190a25050565b600f5481565b6001546001600160a01b031681565b61146c612c3b565b6000546001600160a01b039081169116146114bc576040805162461bcd60e51b81526020600482018190526024820152600080516020613ac9833981519152604482015290519081900360640190fd5b600080546040516001600160a01b03909116907f8be0079c531659141344cd1fd0a4f28419497f9722a3daafe3b4186f6b6457e0908390a3600080546001600160a01b0319169055565b60015460408051630f9e0f3360e31b815233600482015290516002926001600160a01b031691637cf07998916024808301926020929190829003018186803b15801561155157600080fd5b505afa158015611565573d6000803e3d6000fd5b505050506040513d602081101561157b57600080fd5b50511015806115a2575061158d61170a565b6001600160a01b0316336001600160a01b0316145b6115e1576040805162461bcd60e51b81526020600482015260136024820152600080516020613c31833981519152604482015290519081900360640190fd5b600b546001600160a01b0382811691161415611644576040805162461bcd60e51b815260206004820152601f60248201527f536574416e795374616b653a204e6f20416e795374616b65206368616e676500604482015290519081900360640190fd5b6001600160a01b0381166116895760405162461bcd60e51b8152600401808060200182810382526025815260200180613a566025913960400191505060405180910390fd5b600b80546001600160a01b0319166001600160a01b0383811691821783556000918252600e6020908152604092839020805460ff191660011790559254825191168152905133927fd969078c09d4ed45c51e02eab46ee56dc0ccd5744bfb8c726ee7d2d58883df71928290030190a250565b600d546001600160a01b031681565b6000546001600160a01b031690565b60015460408051630f9e0f3360e31b815233600482015290516002926001600160a01b031691637cf07998916024808301926020929190829003018186803b15801561176457600080fd5b505afa158015611778573d6000803e3d6000fd5b505050506040513d602081101561178e57600080fd5b50511015806117b557506117a061170a565b6001600160a01b0316336001600160a01b0316145b6117f4576040805162461bcd60e51b81526020600482015260136024820152600080516020613c31833981519152604482015290519081900360640190fd5b6002546001600160a01b0382811691161415611857576040805162461bcd60e51b815260206004820152601d60248201527f536574556e69737761703a204e6f20756e6973776170206368616e6765000000604482015290519081900360640190fd5b6001600160a01b03811661189c5760405162461bcd60e51b8152600401808060200182810382526022815260200180613bb56022913960400191505060405180910390fd5b600280546001600160a01b0319166001600160a01b038381169190911791829055604080516315ab88c960e31b81529051929091169163ad5c464891600480820192602092909190829003018186803b1580156118f857600080fd5b505afa15801561190c573d6000803e3d6000fd5b505050506040513d602081101561192257600080fd5b5051600480546001600160a01b0319166001600160a01b039283161781556002546040805163c45a015560e01b81529051919093169263c45a01559281810192602092909190829003018186803b15801561197c57600080fd5b505afa158015611990573d6000803e3d6000fd5b505050506040513d60208110156119a657600080fd5b5051600380546001600160a01b039283166001600160a01b03199091161790819055600254600454604080519285168352908416602083015291909216828201525133917f0cded593bf24267de84b7b3800bf9eb31ddb3c449fff75a64b1232bb7738d6df919081900360600190a250565b60015460408051630f9e0f3360e31b815233600482015290516002926001600160a01b031691637cf07998916024808301926020929190829003018186803b158015611a6357600080fd5b505afa158015611a77573d6000803e3d6000fd5b505050506040513d6020811015611a8d57600080fd5b5051101580611ab45750611a9f61170a565b6001600160a01b0316336001600160a01b0316145b611af3576040805162461bcd60e51b81526020600482015260136024820152600080516020613c31833981519152604482015290519081900360640190fd5b600d546001600160a01b0316611b4b576040805162461bcd60e51b8152602060048201526018602482015277135a59dc985d194e88139bc81b5a59dc985d1bdc881cd95d60421b604482015290519081900360640190fd5b600554604080516370a0823160e01b815230600482015290516000926001600160a01b0316916370a08231916024808301926020929190829003018186803b158015611b9657600080fd5b505afa158015611baa573d6000803e3d6000fd5b505050506040513d6020811015611bc057600080fd5b5051600d54600554919250611be8916001600160a01b0390811691168363ffffffff61334916565b600d60009054906101000a90046001600160a01b03166001600160a01b03166398c6e7606040518163ffffffff1660e01b8152600401600060405180830381600087803b158015611c3857600080fd5b505af1158015611c4c573d6000803e3d6000fd5b5050600d54604080516001600160a01b03929092168252513393507f2a05bb717043f3a794e94382bf63f2e275ecafc41be9b63c34f16d58da9822ca92509081900360200190a250565b6006546001600160a01b031681565b600a546001600160a01b03163314611cee5760405162461bcd60e51b81526004018080602001828103825260228152602001806139a46022913960400191505060405180910390fd5b600a60009054906101000a90046001600160a01b03166001600160a01b031663521adaf56040518163ffffffff1660e01b815260040160206040518083038186803b158015611d3c57600080fd5b505afa158015611d50573d6000803e3d6000fd5b505050506040513d6020811015611d6657600080fd5b5051600f55600a54604080516273e79360e31b815290516001600160a01b039092169163039f3c9891600480820192602092909190829003018186803b158015611daf57600080fd5b505afa158015611dc3573d6000803e3d6000fd5b505050506040513d6020811015611dd957600080fd5b5051601155600a5460408051633157030d60e21b815290516001600160a01b039092169163c55c0c3491600480820192602092909190829003018186803b158015611e2357600080fd5b505afa158015611e37573d6000803e3d6000fd5b505050506040513d6020811015611e4d57600080fd5b5051601055600a54604080516376f69fed60e11b815290516000926001600160a01b03169163eded3fda916004808301926020929190829003018186803b158015611e9757600080fd5b505afa158015611eab573d6000803e3d6000fd5b505050506040513d6020811015611ec157600080fd5b5051600b54604080516376f69fed60e11b815290519293506000926001600160a01b039092169163eded3fda91600480820192602092909190829003018186803b158015611f0e57600080fd5b505afa158015611f22573d6000803e3d6000fd5b505050506040513d6020811015611f3857600080fd5b50519050611f4c828263ffffffff612e4e16565b601755600a546040805163f2bc79a360e01b815290516001600160a01b039092169163f2bc79a391600480820192602092909190829003018186803b158015611f9457600080fd5b505afa158015611fa8573d6000803e3d6000fd5b505050506040513d6020811015611fbe57600080fd5b5051601355600554600a54604080516370a0823160e01b81526001600160a01b039283166004820152905160009361201b9386939116916370a0823191602480820192602092909190829003018186803b158015610da257600080fd5b600554600a54604080516323b872dd60e01b81526001600160a01b0392831660048201523060248201526044810185905290519394509116916323b872dd916064808201926020929091908290030181600087803b15801561207c57600080fd5b505af1158015612090573d6000803e3d6000fd5b505050506040513d60208110156120a657600080fd5b5050505050565b60015460408051630f9e0f3360e31b815233600482015290516002926001600160a01b031691637cf07998916024808301926020929190829003018186803b1580156120f857600080fd5b505afa15801561210c573d6000803e3d6000fd5b505050506040513d602081101561212257600080fd5b5051101580612149575061213461170a565b6001600160a01b0316336001600160a01b0316145b612188576040805162461bcd60e51b81526020600482015260136024820152600080516020613c31833981519152604482015290519081900360640190fd5b6006546001600160a01b03828116911614156121eb576040805162461bcd60e51b815260206004820152601b60248201527f536574506f696e74733a204e6f20706f696e7473206368616e67650000000000604482015290519081900360640190fd5b6001600160a01b038116612246576040805162461bcd60e51b815260206004820181905260248201527f536574506f696e74733a204d7573742073657420706f696e74732076616c7565604482015290519081900360640190fd5b600680546001600160a01b0319166001600160a01b03838116918217909255600354600480546040805163e6a4390560e01b81529283019490945284166024820152915192169163e6a4390591604480820192602092909190829003018186803b1580156122b357600080fd5b505afa1580156122c7573d6000803e3d6000fd5b505050506040513d60208110156122dd57600080fd5b5051600880546001600160a01b039283166001600160a01b031990911617905560065460408051919092168152905133917f51a2b49da00e06b51910260db68d6491809bb5755e305a6f469fb89e8b5e99d5919081900360200190a250565b336000908152600e602052604090205460ff1661238a5760405162461bcd60e51b815260040180806020018281038252602a815260200180613b3a602a913960400191505060405180910390fd5b6005546123a29083906001600160a01b03168361345c565b6017546123b5908263ffffffff612e4e16565b6017555050565b60015460408051630f9e0f3360e31b815233600482015290516002926001600160a01b031691637cf07998916024808301926020929190829003018186803b15801561240757600080fd5b505afa15801561241b573d6000803e3d6000fd5b505050506040513d602081101561243157600080fd5b5051101580612458575061244361170a565b6001600160a01b0316336001600160a01b0316145b612497576040805162461bcd60e51b81526020600482015260136024820152600080516020613c31833981519152604482015290519081900360640190fd5b6106e281613525565b6004546000906001600160a01b03848116911614156124c85750670de0b6b3a76400006127d2565b60006001600160a01b038316156124df57826124e1565b835b9050600080600460009054906101000a90046001600160a01b03166001600160a01b0316836001600160a01b0316630dfe16816040518163ffffffff1660e01b815260040160206040518083038186803b15801561253e57600080fd5b505afa158015612552573d6000803e3d6000fd5b505050506040513d602081101561256857600080fd5b50516001600160a01b031614156125fa57826001600160a01b0316630902f1ac6040518163ffffffff1660e01b815260040160606040518083038186803b1580156125b257600080fd5b505afa1580156125c6573d6000803e3d6000fd5b505050506040513d60608110156125dc57600080fd5b5080516020909101516001600160701b039182169350169050612677565b826001600160a01b0316630902f1ac6040518163ffffffff1660e01b815260040160606040518083038186803b15801561263357600080fd5b505afa158015612647573d6000803e3d6000fd5b505050506040513d606081101561265d57600080fd5b5080516020909101516001600160701b0390811693501690505b8061268857600093505050506127d2565b6001600160a01b03851661272057612716866001600160a01b03166318160ddd6040518163ffffffff1660e01b815260040160206040518083038186803b1580156126d257600080fd5b505afa1580156126e6573d6000803e3d6000fd5b505050506040513d60208110156126fc57600080fd5b5051610e0b84671bc16d674ec8000063ffffffff612e9716565b93505050506127d2565b6000866001600160a01b031663313ce5676040518163ffffffff1660e01b815260040160206040518083038186803b15801561275b57600080fd5b505afa15801561276f573d6000803e3d6000fd5b505050506040513d602081101561278557600080fd5b505160ff16602403905060006127a984610e0b85600a86900a63ffffffff612e9716565b90506127ca6ec097ce7bc90715b34b9f10000000008263ffffffff612ef016565b955050505050505b92915050565b60145481565b60155481565b600e6020526000908152604090205460ff1681565b6003546001600160a01b031681565b60105481565b60015460408051630f9e0f3360e31b815233600482015290516002926001600160a01b031691637cf07998916024808301926020929190829003018186803b15801561285957600080fd5b505afa15801561286d573d6000803e3d6000fd5b505050506040513d602081101561288357600080fd5b50511015806128aa575061289561170a565b6001600160a01b0316336001600160a01b0316145b6128e9576040805162461bcd60e51b81526020600482015260136024820152600080516020613c31833981519152604482015290519081900360640190fd5b600c546001600160a01b03828116911614156129365760405162461bcd60e51b8152600401808060200182810382526021815260200180613a0f6021913960400191505060405180910390fd5b6001600160a01b03811661297b5760405162461bcd60e51b8152600401808060200182810382526027815260200180613b646027913960400191505060405180910390fd5b600c80546001600160a01b0319166001600160a01b0383811691821783556000918252600e6020908152604092839020805460ff191660011790559254825191168152905133927ff489dcedf765e00963d6c13903d580a27ea806656ce92cd0e731bf4a902f5caf928290030190a250565b600b546001600160a01b031681565b336000908152600e602052604090205460ff16612a4a5760405162461bcd60e51b815260040180806020018281038252602a815260200180613b3a602a913960400191505060405180910390fd5b600654600090612a64906001600160a01b03168484612f8c565b600c549091506001600160a01b0316331415612a9157601754612a8d908363ffffffff612e4e16565b6017555b80156111d757601554612aaa908263ffffffff612f3216565b601555604080518381526020810183905281516001600160a01b038616927f269e523b6b004ceb6676e631e6a7f39a9563dce786272ca120df34860c030081928290030190a2505050565b600c546001600160a01b031681565b60175481565b60165481565b60135481565b612b1e612c3b565b6000546001600160a01b03908116911614612b6e576040805162461bcd60e51b81526020600482018190526024820152600080516020613ac9833981519152604482015290519081900360640190fd5b6001600160a01b038116612bb35760405162461bcd60e51b81526004018080602001828103825260268152602001806139c66026913960400191505060405180910390fd5b600080546040516001600160a01b03808516939216917f8be0079c531659141344cd1fd0a4f28419497f9722a3daafe3b4186f6b6457e091a3600080546001600160a01b0319166001600160a01b0392909216919091179055565b6002546001600160a01b031681565b600a546001600160a01b031681565b6007546001600160a01b031681565b3390565b612c47612c3b565b6000546001600160a01b03908116911614612c97576040805162461bcd60e51b81526020600482018190526024820152600080516020613ac9833981519152604482015290519081900360640190fd5b604080516370a0823160e01b815230600482015290516000916001600160a01b038416916370a0823191602480820192602092909190829003018186803b158015612ce157600080fd5b505afa158015612cf5573d6000803e3d6000fd5b505050506040513d6020811015612d0b57600080fd5b5051905080612d5b576040805162461bcd60e51b815260206004820152601760248201527653776565703a204e6f20746f6b656e2062616c616e636560481b604482015290519081900360640190fd5b6040805163a9059cbb60e01b81523360048201526024810183905290516001600160a01b0384169163a9059cbb9160448083019260209291908290030181600087803b158015612daa57600080fd5b505af1158015612dbe573d6000803e3d6000fd5b505050506040513d6020811015612dd457600080fd5b50504715612e0a5760405133904780156108fc02916000818181858888f19350505050158015612e08573d6000803e3d6000fd5b505b6040805182815290516001600160a01b0384169133917f39a3bfd42aa3a6ab14fe516cd2417618c0b46203671179fa38a757f24f5d30c39181900360200190a35050565b6000612e9083836040518060400160405280601e81526020017f536166654d6174683a207375627472616374696f6e206f766572666c6f7700008152506135d0565b9392505050565b600082612ea6575060006127d2565b82820282848281612eb357fe5b0414612e905760405162461bcd60e51b8152600401808060200182810382526021815260200180613a7b6021913960400191505060405180910390fd5b6000612e9083836040518060400160405280601a81526020017f536166654d6174683a206469766973696f6e206279207a65726f000000000000815250613667565b600082820183811015612e90576040805162461bcd60e51b815260206004820152601b60248201527f536166654d6174683a206164646974696f6e206f766572666c6f770000000000604482015290519081900360640190fd5b336000908152600e602052604081205460ff16612fda5760405162461bcd60e51b815260040180806020018281038252602a815260200180613b3a602a913960400191505060405180910390fd5b81612fe757506000612e90565b6004546060906001600160a01b03858116911614613006576003613009565b60025b60ff1667ffffffffffffffff8111801561302257600080fd5b5060405190808252806020026020018201604052801561304c578160200160208202803683370190505b506004549091506001600160a01b03858116911614156130d55760045481516001600160a01b0390911690829060009061308257fe5b60200260200101906001600160a01b031690816001600160a01b03168152505084816001815181106130b057fe5b60200260200101906001600160a01b031690816001600160a01b03168152505061315d565b83816000815181106130e357fe5b6001600160a01b03928316602091820292909201015260045482519116908290600190811061310e57fe5b60200260200101906001600160a01b031690816001600160a01b031681525050848160028151811061313c57fe5b60200260200101906001600160a01b031690816001600160a01b0316815250505b604080516370a0823160e01b815230600482015290516000916001600160a01b038816916370a0823191602480820192602092909190829003018186803b1580156131a757600080fd5b505afa1580156131bb573d6000803e3d6000fd5b505050506040513d60208110156131d157600080fd5b50516002549091506131f7906001600160a01b038781169116600063ffffffff61334916565b600254613217906001600160a01b0387811691168663ffffffff61334916565b600254604051635c11d79560e01b815260048101868152600060248301819052306064840181905261012c42016084850181905260a060448601908152885160a487015288516001600160a01b0390971696635c11d795968c968b9594939092909160c40190602080880191028083838b5b838110156132a1578181015183820152602001613289565b505050509050019650505050505050600060405180830381600087803b1580156132ca57600080fd5b505af11580156132de573d6000803e3d6000fd5b50505050600061333e82886001600160a01b03166370a08231306040518263ffffffff1660e01b815260040180826001600160a01b03166001600160a01b0316815260200191505060206040518083038186803b158015610da257600080fd5b979650505050505050565b8015806133cf575060408051636eb1769f60e11b81523060048201526001600160a01b03848116602483015291519185169163dd62ed3e91604480820192602092909190829003018186803b1580156133a157600080fd5b505afa1580156133b5573d6000803e3d6000fd5b505050506040513d60208110156133cb57600080fd5b5051155b61340a5760405162461bcd60e51b8152600401808060200182810382526036815260200180613bfb6036913960400191505060405180910390fd5b604080516001600160a01b038416602482015260448082018490528251808303909101815260649091019091526020810180516001600160e01b031663095ea7b360e01b1790526111d79084906136cc565b80613466576111d7565b604080516370a0823160e01b815230600482015290516000916001600160a01b038516916370a0823191602480820192602092909190829003018186803b1580156134b057600080fd5b505afa1580156134c4573d6000803e3d6000fd5b505050506040513d60208110156134da57600080fd5b5051905080821115613505576135006001600160a01b038416858363ffffffff61377d16565b61351f565b61351f6001600160a01b038416858463ffffffff61377d16565b50505050565b6001546001600160a01b03828116911614156135725760405162461bcd60e51b81526004018080602001828103825260238152602001806139ec6023913960400191505060405180910390fd5b600180546001600160a01b038084166001600160a01b03199092169190911791829055604080519290911682525133917f434a2db650703b36c824e745330d6397cdaa9ee2cc891a4938ae853e1c50b68d919081900360200190a250565b6000818484111561365f5760405162461bcd60e51b81526004018080602001828103825283818151815260200191508051906020019080838360005b8381101561362457818101518382015260200161360c565b50505050905090810190601f1680156136515780820380516001836020036101000a031916815260200191505b509250505060405180910390fd5b505050900390565b600081836136b65760405162461bcd60e51b815260206004820181815283516024840152835190928392604490910191908501908083836000831561362457818101518382015260200161360c565b5060008385816136c257fe5b0495945050505050565b6060613721826040518060400160405280602081526020017f5361666545524332303a206c6f772d6c6576656c2063616c6c206661696c6564815250856001600160a01b03166137cf9092919063ffffffff16565b8051909150156111d75780806020019051602081101561374057600080fd5b50516111d75760405162461bcd60e51b815260040180806020018281038252602a815260200180613b8b602a913960400191505060405180910390fd5b604080516001600160a01b038416602482015260448082018490528251808303909101815260649091019091526020810180516001600160e01b031663a9059cbb60e01b1790526111d79084906136cc565b60606137de84846000856137e6565b949350505050565b6060824710156138275760405162461bcd60e51b8152600401808060200182810382526026815260200180613a306026913960400191505060405180910390fd5b61383085613937565b613881576040805162461bcd60e51b815260206004820152601d60248201527f416464726573733a2063616c6c20746f206e6f6e2d636f6e7472616374000000604482015290519081900360640190fd5b60006060866001600160a01b031685876040518082805190602001908083835b602083106138c05780518252601f1990920191602091820191016138a1565b6001836020036101000a03801982511681845116808217855250505050505090500191505060006040518083038185875af1925050503d8060008114613922576040519150601f19603f3d011682016040523d82523d6000602084013e613927565b606091505b509150915061333e82828661393d565b3b151590565b6060831561394c575081612e90565b82511561395c5782518084602001fd5b60405162461bcd60e51b815260206004820181815284516024840152845185939192839260440191908501908083836000831561362457818101518382015260200161360c56fe5661756c743a206f6e6c792070726576696f7573205661756c7420616c6c6f7765644f776e61626c653a206e6577206f776e657220697320746865207a65726f2061646472657373536574476f7665726e616e63653a204e6f20676f7665726e616e6365206368616e6765536574526567756c61746f723a204e6f20526567756c61746f72206368616e6765416464726573733a20696e73756666696369656e742062616c616e636520666f722063616c6c536574416e795374616b653a204d757374206861766520416e795374616b652076616c7565536166654d6174683a206d756c7469706c69636174696f6e206f766572666c6f77416464426f6e646564526577617264733a2043616e6e6f742068617665207a65726f20626c6f636b20626f6e644f776e61626c653a2063616c6c6572206973206e6f7420746865206f776e6572416464426f6e646564526577617264733a2043616e6e6f7420616464207a65726f207265776172647353776565703a2043616e6e6f7420776974686472617720626c61636b6c697374656420746f6b656e5661756c743a204f6e6c7920416e795374616b6520616e6420526567756c61746f7220616c6c6f776564536574526567756c61746f723a204d757374206861766520526567756c61746f722076616c75655361666545524332303a204552433230206f7065726174696f6e20646964206e6f742073756363656564536574556e69737761703a204d7573742073657420756e69737761702076616c7565536574526174653a2043616e6e6f742062652067726561746572207468616e20313030255361666545524332303a20617070726f76652066726f6d206e6f6e2d7a65726f20746f206e6f6e2d7a65726f20616c6c6f77616e6365476f763a204f6e6c7920476f7665726e6f727300000000000000000000000000a264697066735822122068cfe7e3f17c2a0b8824361271e472408ddfbfc4d065d466fd5710ea330d592a64736f6c63430006060033536574476f7665726e616e63653a204e6f20676f7665726e616e6365206368616e6765",
  "devdoc": {
    "methods": {}
  },
  "userdoc": {
    "methods": {}
  },
  "storageLayout": {
    "storage": [
      {
        "astId": 8350,
        "contract": "contracts/AnyStakeVaultV2.sol:AnyStakeVaultV2",
        "label": "_owner",
        "offset": 0,
        "slot": "0",
        "type": "t_address"
      },
      {
        "astId": 8145,
        "contract": "contracts/AnyStakeVaultV2.sol:AnyStakeVaultV2",
        "label": "governance",
        "offset": 0,
        "slot": "1",
        "type": "t_address"
      },
      {
        "astId": 11534,
        "contract": "contracts/AnyStakeVaultV2.sol:AnyStakeVaultV2",
        "label": "router",
        "offset": 0,
        "slot": "2",
        "type": "t_address"
      },
      {
        "astId": 11536,
        "contract": "contracts/AnyStakeVaultV2.sol:AnyStakeVaultV2",
        "label": "factory",
        "offset": 0,
        "slot": "3",
        "type": "t_address"
      },
      {
        "astId": 11538,
        "contract": "contracts/AnyStakeVaultV2.sol:AnyStakeVaultV2",
        "label": "weth",
        "offset": 0,
        "slot": "4",
        "type": "t_address"
      },
      {
        "astId": 11540,
        "contract": "contracts/AnyStakeVaultV2.sol:AnyStakeVaultV2",
        "label": "DeFiatToken",
        "offset": 0,
        "slot": "5",
        "type": "t_address"
      },
      {
        "astId": 11542,
        "contract": "contracts/AnyStakeVaultV2.sol:AnyStakeVaultV2",
        "label": "DeFiatPoints",
        "offset": 0,
        "slot": "6",
        "type": "t_address"
      },
      {
        "astId": 11544,
        "contract": "contracts/AnyStakeVaultV2.sol:AnyStakeVaultV2",
        "label": "DeFiatTokenLp",
        "offset": 0,
        "slot": "7",
        "type": "t_address"
      },
      {
        "astId": 11546,
        "contract": "contracts/AnyStakeVaultV2.sol:AnyStakeVaultV2",
        "label": "DeFiatPointsLp",
        "offset": 0,
        "slot": "8",
        "type": "t_address"
      },
      {
        "astId": 11550,
        "contract": "contracts/AnyStakeVaultV2.sol:AnyStakeVaultV2",
        "label": "_blacklistedAdminWithdraw",
        "offset": 0,
        "slot": "9",
        "type": "t_mapping(t_address,t_bool)"
      },
      {
        "astId": 6894,
        "contract": "contracts/AnyStakeVaultV2.sol:AnyStakeVaultV2",
        "label": "vault",
        "offset": 0,
        "slot": "10",
        "type": "t_address"
      },
      {
        "astId": 6896,
        "contract": "contracts/AnyStakeVaultV2.sol:AnyStakeVaultV2",
        "label": "anystake",
        "offset": 0,
        "slot": "11",
        "type": "t_address"
      },
      {
        "astId": 6898,
        "contract": "contracts/AnyStakeVaultV2.sol:AnyStakeVaultV2",
        "label": "regulator",
        "offset": 0,
        "slot": "12",
        "type": "t_address"
      },
      {
        "astId": 6900,
        "contract": "contracts/AnyStakeVaultV2.sol:AnyStakeVaultV2",
        "label": "migrator",
        "offset": 0,
        "slot": "13",
        "type": "t_address"
      },
      {
        "astId": 6904,
        "contract": "contracts/AnyStakeVaultV2.sol:AnyStakeVaultV2",
        "label": "authorized",
        "offset": 0,
        "slot": "14",
        "type": "t_mapping(t_address,t_bool)"
      },
      {
        "astId": 6906,
        "contract": "contracts/AnyStakeVaultV2.sol:AnyStakeVaultV2",
        "label": "bondedRewards",
        "offset": 0,
        "slot": "15",
        "type": "t_uint256"
      },
      {
        "astId": 6908,
        "contract": "contracts/AnyStakeVaultV2.sol:AnyStakeVaultV2",
        "label": "bondedRewardsPerBlock",
        "offset": 0,
        "slot": "16",
        "type": "t_uint256"
      },
      {
        "astId": 6910,
        "contract": "contracts/AnyStakeVaultV2.sol:AnyStakeVaultV2",
        "label": "bondedRewardsBlocksRemaining",
        "offset": 0,
        "slot": "17",
        "type": "t_uint256"
      },
      {
        "astId": 6912,
        "contract": "contracts/AnyStakeVaultV2.sol:AnyStakeVaultV2",
        "label": "distributionRate",
        "offset": 0,
        "slot": "18",
        "type": "t_uint256"
      },
      {
        "astId": 6914,
        "contract": "contracts/AnyStakeVaultV2.sol:AnyStakeVaultV2",
        "label": "lastDistributionBlock",
        "offset": 0,
        "slot": "19",
        "type": "t_uint256"
      },
      {
        "astId": 6916,
        "contract": "contracts/AnyStakeVaultV2.sol:AnyStakeVaultV2",
        "label": "totalTokenBuybackAmount",
        "offset": 0,
        "slot": "20",
        "type": "t_uint256"
      },
      {
        "astId": 6918,
        "contract": "contracts/AnyStakeVaultV2.sol:AnyStakeVaultV2",
        "label": "totalPointsBuybackAmount",
        "offset": 0,
        "slot": "21",
        "type": "t_uint256"
      },
      {
        "astId": 6920,
        "contract": "contracts/AnyStakeVaultV2.sol:AnyStakeVaultV2",
        "label": "totalRewardsDistributed",
        "offset": 0,
        "slot": "22",
        "type": "t_uint256"
      },
      {
        "astId": 6922,
        "contract": "contracts/AnyStakeVaultV2.sol:AnyStakeVaultV2",
        "label": "pendingRewards",
        "offset": 0,
        "slot": "23",
        "type": "t_uint256"
      }
    ],
    "types": {
      "t_address": {
        "encoding": "inplace",
        "label": "address",
        "numberOfBytes": "20"
      },
      "t_bool": {
        "encoding": "inplace",
        "label": "bool",
        "numberOfBytes": "1"
      },
      "t_mapping(t_address,t_bool)": {
        "encoding": "mapping",
        "key": "t_address",
        "label": "mapping(address => bool)",
        "numberOfBytes": "32",
        "value": "t_bool"
      },
      "t_uint256": {
        "encoding": "inplace",
        "label": "uint256",
        "numberOfBytes": "32"
      }
    }
  }
}